:1000000008C1000037C1000035C1000033C1000045
:1000100031C100002FC100002DC100002BC1000024
:1000200029C100000C94790C0C94790C0C94790C77
:1000300021C100001FC100001DC100001BC1000044
:1000400019C1000017C1000015C1000013C1000054
:1000500011C100000FC100000DC100000C942F0C55
:1000600009C100000C94750A0C944C0A03C10000ED
:1000700001C10000FFC00000FDC00000FBC0000087
:10008000F9C00000F7C00000F5C00000F3C0000098
:10009000F1C00000EFC00000EDC00000EBC00000A8
:1000A000E9C00000E7C00000E5C00000E3C00000B8
:1000B000E1C00000DFC00000DDC00000DBC00000C8
:1000C000D9C00000D7C00000D5C000000C94230A9E
:1000D0000C94FA09CFC00000CDC00000CBC00000D6
:1000E000C9C00000740B770B660B6A0B6E0BAE0B6E
:1000F0007B0B7F0B850B890B8D0B930B970B9B0B4E
:10010000AE0BA10BA50BA90B0000220025002800B7
:100110002B002E003100340002010000050108010F
:100120000B0100002100240027002A002D003000D0
:10013000330001010000040107010A01050505055E
:10014000070508080808020202020A0A080804044F
:10015000040401010101010101010303030303037D
:100160000303040707070C0C0C0C0C0C0C0C02020C
:10017000020206060606060606060B0B0B0B0B0B09
:100180000B0B010210202008081020401020408096
:10019000020102010804020101020408102040804B
:1001A00080402010080402018004020180402010D9
:1001B0000804020108040201010204081020408022
:1001C000010204081020408000000A0B02090C0DF7
:1001D0000E080703040100000000000000000000FA
:1001E000000000000000000000000000000000000F
:1001F00000000000121110000000000000000000CC
:10020000000000000000000000000000000059187D
:10021000CF1311241FBECFEFD1E2DEBFCDBF00E070
:100220000CBF18E0A0E0B2E0E2E1FBE300E00BBFAE
:1002300002C007900D92A631B107D9F72DE0A6E1D3
:10024000B8E001C01D92A831B207E1F711E0C8E0A3
:10025000D1E000E006C021970109802FFE010E9435
:100260002D1BC730D10780E00807A9F70E94D313E0
:100270000C94781DC5CE089580E090E00895CF934A
:10028000DF93EC018CE492E00E943D1260E672E0A4
:1002900082E09BE00E94F909BE01DD0F880B990BFB
:1002A0000E942D1264E170E080E090E00E94EB0B70
:1002B00060E089E0DF91CF910C94450BCF93DF9301
:1002C000EC0185E692E00E943D1260E672E082E079
:1002D0009BE00E94F909BE01DD0F880B990B0E947B
:1002E0002D1264E170E080E090E00E94EB0B60E092
:1002F0008BE0DF91CF910C94450BCF93DF93EC0112
:1003000088E792E00E943D1260E672E082E09BE0A6
:100310000E94F909BE01DD0F880B990B0E942D1276
:1003200064E170E080E090E00E94EB0B60E08AE026
:10033000DF91CF910C94450BCF93DF93EC018AE8CA
:1003400092E00E943D1260E672E082E09BE00E9433
:10035000F909BE01DD0F880B990B0E942D1264E193
:1003600070E080E090E00E94EB0B60E088E0DF91BD
:10037000CF910C94450BCF93DF93EC018DE992E084
:100380000E943D1260E672E082E09BE00E94F90963
:10039000BE01DD0F880B990B0E942D120E94230CC9
:1003A00061E08AE0DF91CF910C94450BCF93DF930E
:1003B000EC0180EB92E00E943D1260E672E082E088
:1003C0009BE00E94F909BE01DD0F880B990B0E948A
:1003D0002D120E94230C61E08BE0DF91CF910C94F1
:1003E000450BCF93DF93EC0184EC92E00E943D1229
:1003F00060E672E082E09BE0FCD7BE01DD0F880B77
:10040000990B0E942D120E94230C61E089E0DF917C
:10041000CF910C94450BCF93DF93EC0189ED92E0E3
:100420000E943D1260E672E082E09BE0E2D7BE01EE
:10043000DD0F880B990B0E942D120E94230C61E0A6
:1004400088E0DF91CF910C94450BCF92DF92EF9231
:10045000FF920F931F938DEE92E00E943D128091C8
:100460003F0890914008A0914108B0914208843B18
:100470009105A105B10598F44091C10C5091C20CB1
:100480006091C30C7091C40C84179507A607B70739
:1004900008F051C08BE193E00E943D127EC0AC0198
:1004A000BD01445B5109610971094A355105610576
:1004B000710508F445C0AC01BD014E5051406109C1
:1004C00071094A3551056105710508F079C08091BF
:1004D000C10C9091C20CA091C30CB091C40C8A3590
:1004E0009105A105B10588F488599E4FAF4FBF4FC4
:1004F0008093C10C9093C20CA093C30CB093C40C16
:1005000064E776E085EC9CE026D740913F08509167
:10051000400860914108709142088091C10C90910F
:10052000C20CA091C30CB091C40C481759076A07BC
:100530007B0708F4AFCF83E393E00E943D1235C000
:100540004091C10C5091C20C6091C30C7091C40CCD
:100550004A3551056105710508F058C06A017B01F3
:1005600028E6C20E21E0D21EE11CF11C9701860193
:10057000081B190B2A0B3B0B841B950BA60BB70B07
:10058000081719072A073B0758F4C092C10CD092EC
:10059000C20CE092C30CF092C40C62E376E007C098
:1005A00080179107A207B30788F564E776E085EC2A
:1005B0009CE01F910F91FF90EF90DF90CF90CBC602
:1005C000AC01BD0148565140610971094A355105D8
:1005D00061057105D8F44091C10C5091C20C609135
:1005E000C30C7091C40C4A3551056105710508F0C2
:1005F0004BCF48595E4F6F4F7F4F4093C10C509384
:10060000C20C6093C30C7093C40C3ECF1F910F912A
:10061000FF90EF90DF90CF900895CF92DF92EF920E
:10062000FF928AE493E00E943D128DE793E00E94DE
:100630003D126AE973E082E09BE0DBD66091C10C79
:100640007091C20C8091C30C9091C40C0E942D1229
:1006500065EA73E082E09BE0CCD66091330870914C
:10066000340880913508909136080E942D1265EB70
:1006700073E082E09BE0BDD660913F087091400836
:1006800080914108909142080E942D1260EC73E025
:1006900082E09BE0AED640913F08509140086091C7
:1006A0004108709142088091C10C9091C20CA091B8
:1006B000C30CB091C40C84179507A607B70710F4B4
:1006C0006A0101C06C01D0923A08C09239084817FB
:1006D00059076A077B0708F4CA019093380880938A
:1006E000370840913B0850913C0860913D0870915B
:1006F0003E08411551056105710511F440E050E0D7
:100700005093190840931808109217081092160871
:10071000C81AD90A0D2C000CEE08FF08F7FE14C009
:10072000E091020BF091030B0190F081E02D6DE25E
:1007300082E09BE0199566277727CB016C197D092C
:100740008E099F094AE003C04AE0C701B6010E9432
:10075000EA1162ED73E082E09BE036D68DE793E02C
:10076000FF90EF90DF90CF900C943D12CF93DF93EA
:10077000EC0185ED93E00E943D1260E672E082E0BC
:100780009BE037D6BE01DD0F880B990B0E942D121E
:100790001092C10C1092C20C1092C30C1092C40C97
:1007A0003CDFDF91CF9151CECF93DF93EC0189EE07
:1007B00093E00E943D1260E672E082E09BE019D671
:1007C000BE01DD0F880B990B0E942D121092C10CF7
:1007D0001092C20C1092C30C1092C40C1EDFDF9159
:1007E000CF9133CECF93DF93EC018DEF93E00E9456
:1007F0003D1260E672E082E09BE0FBD5BE01DD0FBA
:10080000880B990B0E942D121092C10C1092C20CF1
:100810001092C30C1092C40C00DFDF91CF9115CE63
:10082000CF93DF93EC0181E194E00E943D1260E6FA
:1008300072E082E09BE0DDD5BE01DD0F880B990BF5
:100840000E942D121092C10C1092C20C1092C30C77
:100850001092C40CE2DEDF91CF91F7CDCF93DF93FE
:10086000EC0185E294E00E943D1260E672E082E0D5
:100870009BE0BFD5BE01DD0F880B990B0E942D12A6
:100880001092C10C1092C20C1092C30C1092C40CA6
:10089000C4DEDF91CF91D9CDCF93DF93EC0189E313
:1008A00094E00E943D1260E672E082E09BE0A1D5F8
:1008B000BE01DD0F880B990B0E942D121092C10C06
:1008C0001092C20C1092C30C1092C40CA6DEDF91E1
:1008D000CF91BBCDCF93DF93EC018DE494E00E94E8
:1008E0003D1260E672E082E09BE083D5BE01DD0F41
:1008F000880B990B0E942D121092C10C1092C20C01
:100900001092C30C1092C40C88DEDF91CF919DCD64
:10091000CF93DF93EC0181E694E00E943D1260E604
:1009200072E082E09BE065D5BE01DD0F880B990B7C
:100930000E942D121092C10C1092C20C1092C30C86
:100940001092C40C6ADEDF91CF917FCD8EBD000086
:100950000DB407FEFDCF8EB508958FEFF7CFCF9280
:10096000DF92FF920F931F93CF93DF9300D01F92DC
:10097000CDB7DEB76C01F62E29833A834B835C83B7
:100980000E943D0D8091520829813A814B815C8102
:10099000811109C081E08093520890919F0B809152
:1009A000A00B9CBD8DBD60E0F601848129833A8354
:1009B0004B835C836AD66CE271E0C601A4D78F2DAD
:1009C0008064C4DF08E110E05C814B813A812981B9
:1009D000DA01C901002E04C0B695A79597958795B1
:1009E0000A94D2F729833A834B835C83AFDF0850A4
:1009F000110929813A814B815C81083FFFEF1F0774
:100A000039F7FF2029F088E0F81204C087E803C016
:100A100085E901C08FEF9ADF10E09FDFF601828742
:100A200087FF04C01F3F11F01F5FF7CF0F900F909B
:100A30000F900F90DF91CF911F910F91FF90DF905A
:100A4000CF900895CF93DF93EC0185E69AE098D597
:100A5000892B21F085E69AE071D5F7CFBE0185E6B6
:100A60009AE0C7D46FEF85E69AE089D36FEF85E609
:100A70009AE085D36FEF85E69AE0DF91CF917FC34F
:100A8000EF92FF920F931F93CF93DF9300D000D08C
:100A9000CDB7DEB77C018B0164ED73E0CE0101962A
:100AA0007FD4F70162817381CE010196F6D365E7A9
:100AB00074E0CE010196F1D3B801CE010196EDD3D9
:100AC0006AE774E0CE010196E8D389819A81BADFA2
:100AD0000E945012182FCE0101965DD4812F2696C8
:100AE0000FB6F894DEBF0FBECDBFDF91CF911F913F
:100AF0000F91FF90EF9008958F929F92AF92BF92C7
:100B0000EF92FF920F931F93CF93DF93CDB7DEB792
:100B100060970FB6F894DEBF0FBECDBF7C014A01CF
:100B20005B018E010F5F1F4F8AE0F80111928A95D9
:100B3000E9F764ED73E0CE010B9632D44AE0B801D8
:100B4000C4010E94A11AF70162817381CE010B9644
:100B5000A4D36CE774E0CE010B969FD3B801CE010D
:100B60000B969BD38B859C856DDF0E945012182FAE
:100B7000CE010B9610D4812F60960FB6F894DEBF8D
:100B80000FBECDBFDF91CF911F910F91FF90EF90DE
:100B9000BF90AF909F908F9008950F931F93CF9326
:100BA000DF931F92CDB7DEB78C0169830E94CA1A0A
:100BB0006981681741F0C8010F90DF91CF911F91B3
:100BC0000F910C94D21A0F90DF91CF911F910F913A
:100BD00008958F929F92AF92BF92EF92FF920F93E0
:100BE0001F93CF93DF93CDB7DEB72E970FB6F89450
:100BF000DEBF0FBECDBF8C0182E894E00E943D12A3
:100C000060E672E082E09BE0F4D3B801110F880B3C
:100C1000990B0E942D1262E370E080E090E0DBD53A
:100C200085E0EAE1F8E0DF011D928A95E9F764EDDD
:100C300073E0CE010796B4D36DE974E0CE01079658
:100C40002CD36091A30B7091A40BCE01079625D3F2
:100C500062EA74E0CE01079620D38F819885F2DE98
:100C600064ED73E0CE0101969BD3EDD54B015C01A1
:100C700010E000E0E8D5DC01CB0188199909AA0948
:100C8000BB0985369105A105B10590F04D815E81C6
:100C900046305105B8F145E050E034C085E69AE0B1
:100CA0004DD4002331F18F3F49F41F5F133070F7AB
:100CB00085E69AE065D4892B89F720C08D871E864A
:100CC000ED80FE80BFEFEB1AFB0AB701CE01019663
:100CD000BDD2882369F329813A818D819E81BE012D
:100CE000635F7F4F820F931F0E94621DFE82ED8221
:100CF000DFCF01E08037E1F200E0DACF133008F413
:100D0000B9CFC4CF69817A818AE198E00E94691DD8
:100D100067EA74E082E09BE06CD36D817E8180E0C5
:100D200090E04AE00E94EA1166EB74E082E09BE00A
:100D300060D34D815E8169817A8182E09BE0B8D188
:100D400088EB94E00E943D12CE01019624D3CE019F
:100D5000079621D364E670E080E090E03CD58AE11C
:100D600098E00E94721A092E000CAA0BBB0B80930C
:100D7000C10C9093C20CA093C30CB093C40C8AEB2B
:100D800094E00E943D126BED74E082E09BE031D371
:100D90006AE178E082E09BE02CD385EF94E00E944A
:100DA0003D126CEF74E082E09BE023D36091C10CB4
:100DB0007091C20C8091C30C9091C40C4AE00E94C7
:100DC000EA1185EF94E00E943D128AEB94E00E94C4
:100DD0003D128091C10C9091C20CA091C30CB091B6
:100DE000C40CBC01CD0122E0969587957795679557
:100DF0002A95D1F780E090E0D0DE27DB2E960FB663
:100E0000F894DEBF0FBECDBFDF91CF911F910F9140
:100E1000FF90EF90BF90AF909F908F900895CF93E9
:100E2000DF93EC0186E195E00E943D1260E672E0FE
:100E300082E09BE0DED2BE01DD0F880B990B0E94A1
:100E40002D128EE091E0A0E0B0E08093C10C909371
:100E5000C20CA093C30CB093C40C63E480E090E098
:100E60009CDEDBDBDF91CF91F0CACF93DF93EC0107
:100E70008EE295E00E943D1260E672E082E09BE027
:100E8000B8D2BE01DD0F880B990B0E942D1284EBA6
:100E900090E0A0E0B0E08093C10C9093C20CA093CE
:100EA000C30CB093C40C6DE280E090E076DEB5DB5D
:100EB000DF91CF91CACACF93DF93EC0185E495E02F
:100EC0000E943D1260E672E082E09BE092D2BE0199
:100ED000DD0F880B990B0E942D128AE590E0A0E0AF
:100EE000B0E08093C10C9093C20CA093C30CB0935C
:100EF000C40C66E180E090E050DE8FDBDF91CF91A3
:100F0000A4CACF93DF93EC018CE595E00E943D12DB
:100F100060E672E082E09BE06CD2BE01DD0F880BE0
:100F2000990B0E942D121092C10C1092C20C1092BB
:100F3000C30C1092C40C60E080E090E02EDE6DDB0C
:100F4000DF91CF9182CA60E08BE09FD360E08AE0BE
:100F50009CC384E795E00E943D1280E01DD422EC02
:100F600031E0DC010E94351B2FEF33E040E050E020
:100F70000E94E01ADA01C90120933F08309340082B
:100F800040934108509342084AE06FE178E00E94A4
:100F90008F1A40913F08509140086091410870912C
:100FA00042084F3081E0580761057105E0F435DBF8
:100FB00040913F085091400860914108709142086B
:100FC000465A5F4F6F4F7F4F8DEB9BE095DD63E699
:100FD00075EF80E090E00E943D136FE178E089EDCD
:100FE0009BE04EDD2FC04E505140610971098DEBE1
:100FF0009BE082DD6FE178E089ED9BE041DD80914F
:101000003F0890914008A0914108B091420889564C
:101010009140A109B1098A359105A105B10560F496
:10102000FCDA60E078EF80E090E00E943D1360E041
:1010300078EF80E090E00AC063E675EF80E090E032
:101040000E943D1363E675EF80E090E00C94D212AD
:1010500086EA95E00E943D1281E09ED324EB30E0C9
:10106000DC010E94351B2FEF33E040E050E00E948E
:10107000E01ADA01C90120933B0830933C08409301
:101080003D0850933E084AE069E278E00E948F1ADA
:1010900040913B0850913C0860913D0870913E089A
:1010A00089EB9BE029DD69E278E08DEC9BE0E8CC00
:1010B000CF92DF92EF92FF920F931F93CF93DF9324
:1010C0006C017A018B01C0E0D0E0CE15DF0589F01C
:1010D000D8016D918D01D601ED91FC910190F081C7
:1010E000E02DC6011995892B11F47E0102C02196CD
:1010F000ECCFC701DF91CF911F910F91FF90EF903F
:10110000DF90CF900895FC01A089B1898C91A689C8
:10111000B78982FD0FC09C91818D8F5F8F73228D67
:10112000821749F0218DDF01A20FB11D5D969C93BE
:10113000818F08958C910895FC01538D448D252F46
:1011400030E0842F90E0821B930B541710F0CF9661
:1011500008950197089585E69AE012D221E0892B3F
:1011600009F420E0822F089582E09BE009D221E07B
:10117000892B09F420E0822F08950E944C1DEF92E4
:10118000FF920F931F93CF93DF93EC0181E0888F41
:101190009B8D8C8D981305C0E889F989808185FD28
:1011A00023C0F62E0B8D10E00F5F1F4F0F7311271A
:1011B000E02E8C8DE8120BC00FB607FCFACFE88941
:1011C000F989808185FFF5CFCE013ED2F2CF8B8D9C
:1011D000FE01E80FF11DE35AFF4FF0820B8FEA8901
:1011E000FB898081806207C0EE89FF896083E8897E
:1011F000F98980818064808381E090E0DF91CF91E4
:101200001F910F91FF90EF900895CF93DF93EC0122
:10121000888D8823C1F0EA89FB89808185FD05C01E
:10122000A889B9898C9186FD0EC00FB607FCF5CF51
:10123000808185FFF2CFA889B9898C9185FFEDCF98
:10124000CE0102D2E8CFDF91CF9108950F931F9383
:10125000CF93DF93EC0188819981009729F02A814F
:101260003B812617370788F48B016F5F7F4F0E9401
:10127000681C009761F0998388831B830A832C8103
:101280003D81232B11F4FC01108281E001C080E03C
:10129000DF91CF911F910F910895EF92FF920F93DD
:1012A0001F93CF93DF936115710511F480E022C085
:1012B000FB0101900020E9F73197E61BF70BDC01F9
:1012C00014960D911C911597309799F07B01EC01C4
:1012D0000E0F1F1FB801BADF882341F3288139811F
:1012E0008C819D81B701820F931F0E94621D1D8317
:1012F0000C8381E0DF91CF911F910F91FF90EF90D0
:101300000895EF92FF920F931F93CF93DF93EC0119
:101310007B018A01BA019ADF2881398181110DC0D0
:101320002115310519F0C9010E94D01B19821882BC
:101330001D821C821B821A8206C01D830C83B7018A
:10134000C9010E94621DCE01DF91CF911F910F91C3
:10135000FF90EF900895CF93DF93EC016115710535
:1013600051F0FB0101900020E9F73197AF01461BD6
:10137000570BC7DF0CC088819981009711F00E943C
:10138000D01B198218821D821C821B821A82CE01F8
:10139000DF91CF910895FC01808191810C94D01B45
:1013A000FC0111821082138212821582148261154F
:1013B000710549F0FB0101900020E9F73197AF0179
:1013C000461B570B9ECF08956115710579F0FB01FF
:1013D00001900020E9F73197AF01461B570BDC0164
:1013E000ED91FC910280F381E02D199480E090E072
:1013F0000895EACF1F920F920FB60F9211240BB6E9
:101400000F922F933F934F935F936F937F938F939D
:101410009F93AF93BF93EF93FF9385E69AE014D128
:10142000FF91EF91BF91AF919F918F917F916F91BC
:101430005F914F913F912F910F900BBE0F900FBE78
:101440000F901F9018951F920F920FB60F921124B4
:101450000BB60F922F933F934F935F936F937F93AE
:101460008F939F93AF93BF93EF93FF9385E69AE09B
:101470004ADEFF91EF91BF91AF919F918F917F9144
:101480006F915F914F913F912F910F900BBE0F90F5
:101490000FBE0F901F9018951F920F920FB60F92CC
:1014A00011240BB60F922F933F934F935F936F933B
:1014B0007F938F939F93AF93BF93EF93FF9382E0BC
:1014C0009BE0C2D0FF91EF91BF91AF919F918F911F
:1014D0007F916F915F914F913F912F910F900BBE34
:1014E0000F900FBE0F901F9018951F920F920FB67E
:1014F0000F9211240BB60F922F933F934F935F934C
:101500006F937F938F939F93AF93BF93EF93FF93CB
:1015100082E09BE0F8DDFF91EF91BF91AF919F9149
:101520008F917F916F915F914F913F912F910F908C
:101530000BBE0F900FBE0F901F901895FC01918D60
:10154000828D981761F0828DDF01A80FB11D5D9625
:101550008C91928D9F5F9F73928F90E008958FEF93
:101560009FEF0895FC01918D828D981731F0828D47
:10157000E80FF11D858D90E008958FEF9FEF08959E
:10158000FC01918D228D892F90E0805C9F4F821B02
:1015900091098F739927089580E090E0892B19F0C5
:1015A000E3DD811120C080E090E0892B41F080E0F4
:1015B00090E0892B21F00E940000811117C080E08B
:1015C00090E0892B19F0C7DD811113C080E090E015
:1015D000892BA1F080E090E0892B81F00E9400002F
:1015E00081110AC008950E940000DDCF0E94000012
:1015F000E6CF0E940000EACF0C94000008953FB7A8
:10160000F8948091610A9091620AA091630AB09166
:10161000640A26B5A89B05C02F3F19F00196A11DAD
:10162000B11D3FBFBA2FA92F982F8827820F911D78
:10163000A11DB11DBC01CD0142E0660F771F881FBF
:10164000991F4A95D1F70895FC01848DDF01A80FF9
:10165000B11DA35ABF4F2C91848D90E001968F73DA
:101660009927848FA689B7892C93A089B1898C91F9
:1016700080648C93938D848D981306C00288F389BF
:10168000E02D80818F7D80830895362F90E0FC01CE
:10169000E853FE4F4491FC01EE57FE4F2491FC01AC
:1016A000E45CFE4F9491992309F46BC0442309F440
:1016B00055C050E0FA013197E231F10508F04EC013
:1016C0008827EE58FF4F8F4F0C942D1B8091800080
:1016D0008F7707C0809180008F7D03C0809180004C
:1016E000877F809380003AC084B58F7702C084B52D
:1016F0008F7D84BD33C08091B0008F7703C080910F
:10170000B0008F7D8093B00029C0809190008F77CA
:1017100007C0809190008F7D03C080919000877FEB
:10172000809390001BC08091A0008F7707C08091AC
:10173000A0008F7D03C08091A000877F8093A000D0
:101740000DC0809120018F7707C0809120018F7D8F
:1017500003C080912001877F80932001E92FF0E072
:10176000EE0FFF1FE85FFE4FA591B4918FB7F8947D
:10177000EC91311103C020952E2301C02E2B2C9308
:101780008FBF089561E0FC0184817FDF8091520862
:101790008111109252080895863308F08653909173
:1017A0007B00282F2870977F922B90937B00877067
:1017B000806480937C0080917A00806480937A00BA
:1017C00080917A0086FDFCCF80917800209179008D
:1017D00090E0922B08958F929F92AF92BF92CF92FA
:1017E000DF92EF92FF926B017C0109DF4B015C01FC
:1017F000C114D104E104F104E9F001DFDC01CB0103
:1018000088199909AA09BB09883E9340A105B10529
:1018100078F321E0C21AD108E108F10888EE880EB9
:1018200083E0981EA11CB11CC114D104E104F10491
:1018300021F7DECFFF90EF90DF90CF90BF90AF9079
:101840009F908F9008952FB7F89460915D0A7091E2
:101850005E0A80915F0A9091600A2FBF08951F92DF
:101860000F920FB60F9211242F933F938F939F9354
:10187000AF93BF9380915D0A90915E0AA0915F0A39
:10188000B091600A30915C0A23E0230F2D3720F4D9
:101890000196A11DB11D05C026E8230F0296A11DCA
:1018A000B11D20935C0A80935D0A90935E0AA09319
:1018B0005F0AB093600A8091610A9091620AA091D8
:1018C000630AB091640A0196A11DB11D8093610A5B
:1018D0009093620AA093630AB093640ABF91AF9198
:1018E0009F918F913F912F910F900FBE0F901F905E
:1018F00018951F920F920FB60F9211240F900FBEE2
:101900000F901F9018950F931F93CF93DF93EB01C8
:101910009ADF8B0122D88F3F41F095DF601B710B5E
:101920006C177D07B8F380E001C081E0DF91CF91B3
:101930001F910F910895EF92FF920F931F93CF93F2
:10194000DF93EC017901411551056105710511F431
:1019500082E13AC08B85833039F089E0440F551F0E
:10196000661F771F8A95D1F79A01AB0168E1CE0116
:101970000E94AF04882311F084E026C08EEF0E94FD
:10198000A60487018EEFF81AF80181918F010E9459
:10199000A6040E151F05C1F78FEF0E94A6048FEF56
:1019A0000E94A6040E94AD048A878F71853029F0B9
:1019B00081E18D83CE01E6DE08C068E572E0CE01EC
:1019C000A2DF811106C085E18D83CE01DBDE80E0E0
:1019D00012C020E030E0A9016DE0CE010E94AF040A
:1019E000811104C00E94AD04882311F084E1ECCF82
:1019F000CE01C8DE81E0DF91CF911F910F91FF9062
:101A0000EF900895CF93DF9380915508882389F153
:101A1000C0915308D091540840912402509125025E
:101A200060912602709127022AE538E0CE0183DF1B
:101A3000811102C080E01EC04091560850915708A5
:101A4000609158087091590841155105610571055B
:101A500071F02AE538E0CE016EDF882359F3109249
:101A60005608109257081092580810925908109270
:101A7000550881E0DF91CF910895CF93DF93EC017A
:101A80008E81882381F08F8198859C012F5F3F4F45
:101A900038872F838230924018F40E94AD04F3CF30
:101AA000CE0170DE1E82DF91CF910895BF92CF925A
:101AB000DF92EF92FF920F931F93CF93DF936B010F
:101AC0007C01B42E8091240290912502A0912602DF
:101AD000B09127028C159D05AE05BF0509F470C0B5
:101AE00091DF882309F473C0C0915308D091540842
:101AF0008E81882369F088819981AA81BB81C8166B
:101B0000D906EA06FB0621F48F819885892B99F185
:101B1000C882D982EA82FB828B85A7019601833035
:101B200039F089E0220F331F441F551F8A95D1F7E2
:101B300061E1CE010E94AF04882319F083E08D8318
:101B400033C081DE8B010E94AD048A878F3F41F450
:101B50007ADE601B710B6D327140A8F38FE003C019
:101B60008E3F29F08DE08D83CE010CDE1DC01886DE
:101B70001F8281E08E830AE518E00E94AD04F8011F
:101B800081938F01FAE00A351F07B9F78F81988595
:101B90009E5F98878F832985222319F081159240B3
:101BA00038F0CE016ADF04C0CE01ECDD80E00FC06A
:101BB000C0922402D0922502E0922602F0922702DF
:101BC00080915508482F4B294093550881E0DF91BB
:101BD000CF911F910F91FF90EF90DF90CF90BF902A
:101BE00008954F925F926F927F928F929F92AF92E1
:101BF000BF92CF92DF92EF92FF920F931F93CF93FA
:101C0000DF93EC016A017B01280139014230510563
:101C10006105710510F480E072C089859A85AB85F5
:101C2000BC850196A11DB11D84179507A607B707AE
:101C300090F38B889C88AD88BE888F89803129F489
:101C4000BB27AF2D9E2D8D2D09C0DB01CA0147E0BA
:101C5000B695A795979587954A95D1F7880E991EC1
:101C6000AA1EBB1E8091240290912502A0912602FB
:101C7000B091270288169906AA06BB0679F48F89C7
:101C8000803199F4DD24EE24FF24C601880F991FCA
:101C9000FC01E65AF74F5182408218C040E0C5016E
:101CA000B40104DF8111EBCFB6CFE894C7F8DD248F
:101CB000EE24FF24C601880F991F880F991FFC018D
:101CC000E65AF74F408251826282738280915508B2
:101CD0008160809355088A89823080F08D819E8151
:101CE000AF81B885880E991EAA1EBB1E8092560829
:101CF00090925708A0925808B092590881E0DF915D
:101D0000CF911F910F91FF90EF90DF90CF90BF90F8
:101D1000AF909F908F907F906F905F904F900895BD
:101D20008F929F92AF92BF92CF92DF92EF92FF92EB
:101D30000F931F93CF93DF93FC0181859285A38539
:101D4000B4850196A11DB11D84179507A607B70795
:101D500010F480E05BC083899489A589B689C7891E
:101D6000C03129F4852E962EA72EBB2409C04A0126
:101D70005B01C7E0B694A79497948794CA95D1F76E
:101D8000E9016A017B018F01BC01CD01680D791D5C
:101D90008A1D9B1D8090240290902502A09026020F
:101DA000B0902702681579058A059B0599F4F8011A
:101DB00087898031A1F4B701A601552766277727C7
:101DC000440F551FFA01E65AF74F80819181A0E038
:101DD000B0E017C040E06ADE8111E9CFBACFB701A9
:101DE000A6014F77552766277727440F551F440FC5
:101DF000551FFA01E65AF74F80819181A281B38184
:101E0000BF7088839983AA83BB8381E0DF91CF91E0
:101E10001F910F91FF90EF90DF90CF90BF90AF9008
:101E20009F908F9008953F924F925F926F927F9212
:101E30008F929F92AF92BF92CF92DF92EF92FF92DA
:101E40000F931F93CF93DF93CDB7DEB72C970FB6C9
:101E5000F894DEBF0FBECDBF5C01DC015B968D90B8
:101E60009C905C971696CD90DD90ED90FC90199724
:101E7000C114D104E104F10439F0BFEFCB1ADB0A3D
:101E8000EB0AFB0A312C07C0F401C080D180E2804C
:101E9000F38033243394F40181859285A385B4853E
:101EA0009C01AD012F5F3F4F4F4F5F4F29873A870E
:101EB0004B875C87260137011D821E821F82188690
:101EC000F40181859285A385B4852D813E814F8162
:101ED0005885281739074A075B0708F060C08985CD
:101EE0009A85AB85BC858C159D05AE05BF0550F464
:101EF00082E0C82ED12CE12CF12C92E0492E512CFD
:101F0000612C712C9E012F5F3F4FB701A601C401C8
:101F100007DF882309F443C089819A81AB81BC81A2
:101F2000892B8A2B8B2B41F0260137019FEF491A11
:101F3000590A690A790A05C0C414D504E604F704ED
:101F400091F02D813E814F8158852F5F3F4F4F4F3C
:101F50005F4F2D833E834F8358873FEFC31AD30AC9
:101F6000E30AF30AADCF0FEF1FEF2FEF3FE0B3010E
:101F7000A201C40136DE882391F0D50116964D9159
:101F80005D916D917C911997411551056105710520
:101F900041F093018201C40124DE811102C080E07E
:101FA0002AC0D50116964D925D926D927C9219973A
:101FB000332051F0D301C2010196A11DB11DF401DE
:101FC00080839183A283B383F5018789908DA18D4E
:101FD000B28D892B8A2B8B2B69F4D50157964D92A4
:101FE0005D926D927C925A9714968C9114978068AA
:101FF00014968C9381E02C960FB6F894DEBF0FBE3A
:10200000CDBFDF91CF911F910F91FF90EF90DF90A7
:10201000CF90BF90AF909F908F907F906F905F9088
:102020004F903F9008954F925F926F927F928F9260
:102030009F92AF92BF92EF92FF920F931F93CF9315
:10204000DF9300D01F921F92CDB7DEB78C016D8356
:10205000DC0115968C911597813009F056C01496C5
:102060008C9181FF52C059C0038CF48DE02D2585E1
:1020700030E0275F3F4F2A013B01B1E04B1A510886
:1020800061087108022E04C07694679457944794AF
:102090000A94D2F7D501C4010197A109B10904C07E
:1020A000B695A795979587952A95D2F784159505A6
:1020B000A605B70508F06FC0F8014789508D618DFE
:1020C000728D46835783608771872C013D017801AB
:1020D000E6E0EE0EF11CD8014114510461047104D4
:1020E00009F463C016964D915D916D917C9119979D
:1020F00097015B968D919C915C9712DEB1E04B1A33
:102100005108610871088111E6CF81E090E0F80183
:102110009383828380E090E049C182FF0EC0F80182
:10212000428553856485758583889488A588B6889B
:10213000481559056A057B05F1F4D8011A964D91A9
:102140005D916D917C911D975B968D919C915C97B3
:10215000FC0174807A944A015B0129E0B694A7944B
:10216000979487942A95D1F778207A01F1E0FF229D
:10217000772011F162C081149104A104B10409F027
:1021800073CF1682178210861186F8011286138685
:1021900014861586D2CF452B462B472B09F48CCFBE
:1021A00084199509A609B70990CF1A968D929D9228
:1021B000AD92BC921D97C1CFE114F10409F03DC06E
:1021C000F80146815781608571854115510561058A
:1021D000710549F48789908DA18DB28D0097A10575
:1021E000B10531F520C09E012F5F3F4F99DD882357
:1021F00009F490CF89819A81AB81BC81F801238D4C
:10220000348DF9012789203129F048EF5FEF6FEF16
:102210007FE004C048EF5FEF60E070E0841795074F
:10222000A607B70728F0C801FEDD811106C06DCFF3
:10223000F80186839783A087B187D8015B96ED91DB
:10224000FC915C9716968D909D90AD90BC901997DF
:10225000B2E08B1A9108A108B108058404C0880C6B
:10226000991CAA1CBB1C0A94D2F786859785A08965
:10227000B189880E991EAA1EBB1E870C911CA11C39
:10228000B11CE114F10401F5F80142855385648520
:10229000758583899489A589B689481759076A077E
:1022A0007B0790F0AFDB882309F42FCF80922402C4
:1022B00090922502A0922602B092270280915508A2
:1022C00081608093550807C041E0C501B401EEDB91
:1022D000882309F41ACFF701E65AF74F8D818083DE
:1022E000F80182859385A485B5850196A11DB11D50
:1022F00082879387A487B5874389548965897689BE
:10230000481759076A077B0738F4838B948BA58B92
:10231000B68B848180688483D80114968C9183FD68
:1023200003C081E090E042C0F8019581992309F44F
:10233000ECCE87FF37C0668577858089918941E03B
:10234000B5DB882309F4E1CED8015296EC91B0E2D6
:10235000EB9F90011124D901A65AB74F109709F4A9
:10236000D4CEF8018581823050F44389548965893F
:1023700076895C964D935D936D937C935F97F8019E
:102380008789908DA18DB28DF901E65AF74F938F11
:10239000828FB58BA48BD80114968C9114978F776C
:1023A00014968C932FDB8111BCCFAFCE0F900F9082
:1023B0000F900F900F90DF91CF911F910F91FF9091
:1023C000EF90BF90AF909F908F907F906F905F90B5
:1023D0004F9008958F929F92AF92BF920F931F9349
:1023E000CF93DF93CDB7DEB7A1970FB6F894DEBFDA
:1023F0000FBECDBF19A2423008F44AE08E010F5D36
:102400001F4F842E912CA12CB12CA50194010E9468
:10241000FC1AE62FB901CA0101501109EA3014F47F
:10242000E05D01C0E95CD801EC93232B242B252B24
:1024300061F7B80182E09BE00E94E409A1960FB623
:10244000F894DEBF0FBECDBFDF91CF911F910F91EA
:10245000BF90AF909F908F900895CF93DF934AE005
:10246000B9DFEC0162ED73E082E09BE00E94E409D9
:102470008C0F9D1FDF91CF910895CF93DF93BC0107
:1024800082E09BE00E94E409EC0162ED73E082E0EF
:102490009BE00E94E4098C0F9D1FDF91CF9108956E
:1024A0008F929F92AF92BF92EF92FF920F931F93E2
:1024B000CF93DF9300D01F92CDB7DEB719821A8277
:1024C0001B821C8284E690E0A0E0B0E08093690A61
:1024D00090936A0AA0936B0AB0936C0A8E010F5F07
:1024E0001F4F7E0185E0E80EF11CADD960936D0AA7
:1024F00070936E0A80936F0A9093700AE091650A58
:10250000F091660A0284F385E02D85E69AE019953C
:1025100097FD0AC0F80181938F01EE15FF0529F799
:102520008981813061F51DC08ED980906D0A9090AF
:102530006E0AA0906F0AB090700ADC01CB01881976
:102540009909AA09BB098090690A90906A0AA0902B
:102550006B0AB0906C0A88159905AA05BB0570F244
:10256000DFCF8A818F3F59F48B818F3F41F48C817B
:102570008F3F29F48FEC97E080DF81E004C089EE83
:1025800097E07BDF80E00F900F900F900F90DF912E
:10259000CF911F910F91FF90EF90BF90AF909F90C0
:1025A0008F900895CF92DF92EF92FF920F931F9337
:1025B000CF93DF93CDB7DEB760970FB6F894DEBF49
:1025C0000FBECDBF6B017C018E010F5F1F4F8AE0F4
:1025D000F80111928A95E9F764ED73E0CE010B964C
:1025E0000E94D0094AE0B801C601ABD789EDE82EB8
:1025F0008BE0F82EF70162817381CE010B960E9469
:102600004D0964E078E0CE010B960E944D09B801B7
:10261000CE010B960E944D098B859C850E94220558
:1026200064ED73E0CE010B960E94AB096AE078E09E
:10263000CE010B960E944D09F70162817381CE0194
:102640000B960E944D098B859C850E94220528DFF0
:10265000182FCE010B960E94CB09812F60960FB6E2
:10266000F894DEBF0FBECDBFDF91CF911F910F91C8
:10267000FF90EF90DF90CF900895CF92DF92EF928E
:10268000FF920F931F93CF93DF93CDB7DEB7609781
:102690000FB6F894DEBF0FBECDBF6B017C018E017B
:1026A0000F5F1F4F8AE0F80111928A95E9F764EDF8
:1026B00073E0CE010B960E94D0094AE0B801C60132
:1026C00040D78DEBE82E8BE0F82EF7016281738105
:1026D000CE010B960E944D096FE078E0CE010B967B
:1026E0000E944D09B801CE010B960E944D098B85C1
:1026F0009C850E94220564ED73E0CE010B960E943A
:10270000AB096AE078E0CE010B960E944D09F70113
:1027100062817381CE010B960E944D098B859C8549
:102720000E942205BDDE182FCE010B960E94CB0918
:10273000812F60960FB6F894DEBF0FBECDBFDF913C
:10274000CF911F910F91FF90EF90DF90CF90089560
:10275000FC01A089B18982E08C93A485B5851C9287
:10276000A685B78580E18C93108EA489B58986E013
:102770008C93A289B3898C9180618C93A289B3894F
:102780008C9188608C93A289B3898C9180688C939A
:102790000288F389E02D80818F7D8083089585EC08
:1027A0009CE00C94CB09CF93DF9300D000D0CDB741
:1027B000DEB7789484B5826084BD84B5816084BDC1
:1027C00085B5826085BD85B5816085BD80916E00CF
:1027D000816080936E001092810080918100826000
:1027E000809381008091810081608093810080913D
:1027F00080008160809380008091B100846080932C
:10280000B1008091B00081608093B0008091910010
:10281000826080939100809191008160809391000B
:10282000809190008160809390008091A1008260EF
:102830008093A1008091A10081608093A10080918C
:10284000A00081608093A00080912101826080932C
:1028500021018091210181608093210180912001DB
:1028600081608093200180917A00846080937A0057
:1028700080917A00826080937A0080917A008160F2
:1028800080937A0080917A00806880937A00109219
:10289000C10080E090E07ED624E0829FC001112438
:1028A000092E000CAA0BBB0B8093330890933408BD
:1028B000A0933508B093360808E010E0802FF801A7
:1028C000EE57FE4F9491F801E45CFE4F24912223D1
:1028D00099F030E0220F331FF901EE5DFE4FA59114
:1028E000B491F901E85FFE4F259134912FB7F89428
:1028F000EC91E92BEC932FBF60E00E94450B0F5F3A
:102900001F4F0C301105D1F682E09BE021DF85E6F8
:102910009AE01EDF84ED93E00E94220588ED95E0A9
:102920000E942205BDDD80EE95E00E942205B8DD03
:1029300085E19CE02EE531E030931E0C20931D0CC8
:102940009093200C80931F0C26ED31E030931A0CED
:102950002093190C90931C0C80931B0C81E29CE03B
:102960002DE731E030932A0C2093290C90932C0C06
:1029700080932B0C2BEB31E03093260C2093250C0D
:102980009093280C8093270C89E39CE02CE931E09C
:102990003093420C2093410C9093440C8093430C51
:1029A0002BE032E030933E0C20933D0C9093400C92
:1029B00080933F0C8DE29CE02FE331E03093360CA6
:1029C0002093350C9093380C8093370C21EF31E035
:1029D0003093320C2093310C9093340C8093330C51
:1029E00089EE95E090934E0C80934D0C85E49CE02D
:1029F0009093500C80934F0C8AE694E09093A20C35
:102A00008093A10C89E99CE09093A40C8093A30C83
:102A10008CE494E09093960C8093950C8DE89CE068
:102A20009093980C8093970C8EE294E090938A0C8C
:102A30008093890C81E89CE090938C0C80938B0CA4
:102A400080E194E090937E0C80937D0C85E79CE080
:102A50009093800C80937F0C82EF93E09093720CA4
:102A60008093710C89E69CE09093740C8093730CB6
:102A700084ED93E09093660C8093650C8DE59CE06B
:102A80009093680C8093670C86EB93E090935A0CBC
:102A90008093590C81E59CE090935C0C80935B0CD7
:102AA00088E894E09093AE0C8093AD0C85EA9CE0AE
:102AB0009093B00C8093AF0C8FE097E09093120C42
:102AC0008093110C89E09CE09093140C8093130C7C
:102AD0008BE597E09093060C8093050C8DEF9BE0BF
:102AE0009093080C8093070C85E397E09093EE0B8E
:102AF0008093ED0B85EE9BE09093F00B8093EF0BB2
:102B000081E897E09093FA0B8093F90B81EF9BE0BB
:102B10009093FC0B8093FB0B87EE95E0AEDC68EEA8
:102B200073E080E090E00E94EB0B54E1E52EF12C85
:102B3000C12CD12CA6010D2C000C660B770B89EB58
:102B40009BE00E947C054AE069E278E0C601E7D498
:102B500069E278E08DEC9BE00E9440058601000F61
:102B6000111FA801012E000C660B770B8DEB9BE06B
:102B70000E947C054AE06FE178E0C801D0D46FE1A3
:102B800078E089ED9BE00E94400534EBC316D10448
:102B900019F4F194E194F108CE0CDF1C4FEFC41648
:102BA000D40644F60E94A9070E94280880E00E94EB
:102BB000CC0B1C0181E00E94CC0B8C01C0903F0823
:102BC000D0904008E0904108F0904208C982DA8233
:102BD000EB82FC8280903B0890903C08A0903D08DE
:102BE000B0903E080E94230C6B017C0185E69AE0C0
:102BF0000E94C00A181619060CF050C06AE070E076
:102C000080E090E00E94EB0B85E69AE00E949E0A2D
:102C1000782E25E68213EACF85E69AE00E94C00A64
:102C2000069724F37092430834E4632E38E0732E41
:102C300085E69AE00E949E0AD3018D933D01BAE495
:102C40006B16B8E07B06A1F710924A0880914708FE
:102C50008F3F61F6809148088F3F41F68091490887
:102C60008F3F21F640904608512C612C712C8091A9
:102C7000450890914408E0E0F2E0219131913E83D3
:102C80002D83232B09F4B2CFAD81BE812C91291362
:102C9000F4CF11962C912813F0CFA1C18091C90CCB
:102CA0009091CA0C892B09F414C16090C50C7090E6
:102CB000C60C62E376E0C301FCD6892B09F07CC028
:102CC00089EF95E0DADB0E94230C61E08BE00E9443
:102CD000450B40913F085091400860914108709128
:102CE00042088091C10C9091C20CA091C30CB0918C
:102CF000C40C84179507A607B70710F49A0101C002
:102D00009C0130933A0820933908481759076A07FD
:102D10007B0708F4CA019093380880933708412C48
:102D2000512C32018091390890913A08209137084E
:102D300030913808821B930B02970CF4C2C00E949A
:102D4000230C6B017C01DC01CB0184199509A609D8
:102D5000B709853F9140A105B10538F08FE096E0B5
:102D60008CDB0E94A9072601370140913F08509152
:102D7000400860914108709142088091C10C909187
:102D8000C20CA091C30CB091C40C84179507A60780
:102D9000B70710F49A0101C09C0130933A082093C0
:102DA0003908481759076A077B0708F4CA01909346
:102DB000380880933708B6CF64E776E0C30179D648
:102DC000892B09F086C08BE396E057DB87E796E016
:102DD00054DB0E94230C61E08AE00E94450B409185
:102DE0003F085091400860914108709142088091DD
:102DF000C10C9091C20CA091C30CB091C40C84176B
:102E00009507A607B70710F49A0101C09C013093FB
:102E10003A0820933908481759076A077B0708F4CE
:102E2000CA019093380880933708412C512C320105
:102E30008091390890913A082091370830913808EC
:102E4000821B930B0297ECF10E94230C6B017C0117
:102E5000DC01CB0184199509A609B709853F91408A
:102E6000A105B10538F086EA96E007DB0E94A907C4
:102E70002601370140913F08509140086091410878
:102E8000709142088091C10C9091C20CA091C30C2A
:102E9000B091C40C84179507A607B70710F49A01E0
:102EA00001C09C0130933A0820933908481759070C
:102EB0006A077B0708F4CA019093380880933708A3
:102EC000B7CF0E94A30766E376E085EC9CE00E9402
:102ED000AB0980914D0890914E08A0914F08B09198
:102EE0005008A7019601281B390B4A0B5B0BDA012E
:102EF000C901843F9140A105B10508F46DC022ECE1
:102F000031E0D101B2D32FEF33E040E050E058D3AD
:102F1000C0924D08D0924E08E0924F08F0925008AF
:102F2000DA01C901C980DA80EB80FC802C153D05EF
:102F30004E055F0510F4D701C601BA01A901C98089
:102F4000DA80EB80FC80C416D506E606F70610F49E
:102F5000B701A601841B950B0397BCF00E94A9073B
:102F600080913F0890914008A0914108B09142089B
:102F7000BC01CD0122E096958795779567952A95B6
:102F8000D1F781E090E00E94CD0524EB30E0D8013C
:102F90006CD32FEF33E040E050E012D3DA01C901E7
:102FA000281539054A055B0510F4D501C401BA019D
:102FB000A90184169506A606B70610F4B501A4016A
:102FC000841B950B039744F00E94280860913B08EE
:102FD00082E090E00E94CD050E94CC0AE7CD64EB30
:102FE00074E082E09BE00E94F9094AE02D813E8175
:102FF000B901330F880B990BEDD96CEC76E082E0C8
:103000009BE00E94F909AD81BE816C9170E080E087
:1030100090E04AE0DFD966EB74E082E09BE00E943A
:10302000F909ED81FE81618170E080E090E04AE085
:10303000D1D966EB74E082E09BE00E94F909AD8192
:10304000BE8112966D917C9113976115710511F4F3
:1030500062EF75E082E09BE00E94F90988EB94E062
:103060000CDAB1E04B1651046104710471F4AD81C6
:10307000BE811496ED91FC911597309709F4B6CD69
:1030800016968D919C91179712C04528462847287F
:1030900009F0ACCDAD81BE811896ED91FC911997E8
:1030A000309709F4A3CD1A968D919C911B97199591
:1030B0009DCDE5E6FAE01382128248EE53E060E02F
:1030C00070E0448355836683778382E392E0918343
:1030D000808325ED30E03587248724ED30E0378785
:1030E000268720ED30E0318B208B21ED30E0338BD3
:1030F000228B22ED30E0358B248B26ED30E0378BB0
:10310000268B118E128E138E148EE2E0FBE013825A
:10311000128244835583668377839183808385EC11
:1031200090E09587848784EC90E09787868780EC91
:1031300090E0918B808B81EC90E0938B828B82EC82
:1031400090E0958B848B86EC90E0978B868B118E2C
:10315000128E138E148EEFE9FBE080E580831182DE
:10316000EBECFCE0158216821186138682E090E07B
:10317000A0E0B0E084879587A687B78713A215A63D
:1031800014A684E492E093A782A717A666E376E0EC
:1031900085EC9CE00E94D0098091C10C9091C20CFA
:1031A0009C012B5F3F4F3093C00C2093BF0C0597C1
:1031B0009093BE0C8093BD0CE1EBFCE024E02083F7
:1031C00011828EEC96E0938382831582148211869D
:1031D00010861386128617821682E5EAFCE082E0EA
:1031E00080839BE0918348ED56E0538342831582B0
:1031F0001482118610861386128617821682E9E9D8
:10320000FCE0808391E2918341EE56E05383428358
:1032100015821482118610861386128617821682F2
:10322000EDE8FCE080839CE091834AEE56E0538316
:1032300042831582148211861086138612861782A5
:103240001682E1E8FCE0808392E2918343EF56E04E
:103250005383428315821482118610861386128648
:1032600017821682E5E7FCE080839DE091834CEFB6
:1032700056E053834283158214821186108613868A
:10328000128617821682E9E6FCE0808393E291833E
:1032900045E057E0538342831582148211861086DD
:1032A0001386128617821682EDE5FCE080839EE08D
:1032B00091834EE057E05383428315821482118636
:1032C00010861386128617821682E1E5FCE0808361
:1032D00094E2918347E157E053834283158214823D
:1032E000118610861386128617821682E5E4FCE0AA
:1032F000808395E2918340E257E0538342831582B5
:103300001482118610861386128617821682E9E3CC
:10331000FCE091E0908346E041836FE277E07383C5
:103320006283158214821186108613861286178294
:103330001682EDE2FCE0908337E0318366E377E0CC
:103340007383628315821482118610861386128617
:1033500017821682E1E2FCE0908358E051836FE32C
:1033600077E0738362831582148211861086138638
:10337000128617821682E5E1FCE0908369E06183A2
:10338000A6E4B7E0B383A283158214821186108667
:103390001386128617821682E9E0FCE0808361833F
:1033A0006EE477E07383628315821482118610863F
:1033B0001386128617821682EDEFFBE0808351831D
:1033C0006BE577E073836283158214821186108621
:1033D0001386128617821682E1EFFBE08083418319
:1033E00047E657E053834283158214821186108684
:1033F0001386128617821682E5EEFBE08083318306
:1034000044E757E053834283158214821186108665
:103410001386128617821682E9EDFBE0908345E061
:10342000418340E857E0538342831582148211861A
:1034300010861386128617821682EDECFBE09083CD
:1034400021834BE857E0538342831582148211860F
:1034500010861386128617821682E1ECFBE08083C9
:10346000318326E937E03383228315821482118663
:1034700010861386128617821682EDEBFBE090838E
:103480002AE0218321EA37E033832283E9EBFBE062
:10349000908393E091832CEA37E033832283EDEA33
:1034A000FBE0808399E1918327EB37E0338322832C
:1034B0001582148211861086138612861782168250
:1034C000E1EAFBE0808388E1818385EC97E09383E8
:1034D00082831582148211861086138612861782C3
:1034E00016820895FC0188279927E89421912032BB
:1034F000E9F3293010F02E30C8F32B3239F02D3299
:1035000031F4689403C015D0820F911D219120538E
:103510002A30C8F31EF4909581959F4F0895BB27DC
:103520004A3031F4992322F4BDE2909581959F4F62
:1035300009C07AE0979F902D879F802D910D1124CF
:103540000895BB27FB015527AA27880F991FAA1F9B
:10355000A41710F0A41B83955051B9F7A05DAA33AE
:1035600008F0A95DA193009779F7B111B193119279
:10357000CB0100C0DC01FC01672F71917723E1F7DB
:10358000329704C07C916D9370836291AE17BF0730
:10359000C8F30895F999FECF92BD81BDF89A992795
:1035A00080B50895262FF999FECF1FBA92BD81BD2F
:1035B00020BD0FB6F894FA9AF99A0FBE01960895B5
:1035C000052E97FB16F400940FD057FD05D014D0AC
:1035D00007FC02D046F408C05095409530952195DF
:1035E0003F4F4F4F5F4F089590958095709561952F
:1035F0007F4F8F4F9F4F0895A1E21A2EAA1BBB1B2E
:10360000FD010DC0AA1FBB1FEE1FFF1FA217B307AE
:10361000E407F50720F0A21BB30BE40BF50B661FC4
:10362000771F881F991F1A9469F760957095809588
:1036300090959B01AC01BD01CF010895A29FB001FF
:10364000B39FC001A39F700D811D1124911DB29FD6
:10365000700D811D1124911D0895EE0FFF1F881F0D
:103660008BBF0790F691E02D1994E8DFB7FF08951E
:10367000821B930B0895CF93DF938230910510F452
:1036800082E090E0E091160DF091170D20E030E01F
:10369000C0E0D0E0309711F14081518148175907BF
:1036A000C0F04817590761F482819381209719F07F
:1036B0009B838A832BC09093170D8093160D26C091
:1036C0002115310519F04217530718F49A01BE016C
:1036D000DF01EF010280F381E02DDCCF2115310500
:1036E00009F1281B390B2430310590F412968D9185
:1036F0009C9113976115710521F0FB0193838283DF
:1037000004C09093170D8093160DFD01329644C0AE
:10371000FD01E20FF31F81939193225031092D9304
:103720003C933AC02091140D3091150D232B41F498
:1037300020912A0230912B023093150D2093140D05
:1037400020912802309129022115310541F42DB72D
:103750003EB740912C0250912D02241B350BE09175
:10376000140DF091150DE217F307A0F42E1B3F0B7B
:103770002817390778F0AC014E5F5F4F24173507E3
:1037800048F04E0F5F1F5093150D4093140D819319
:10379000919302C0E0E0F0E0CF01DF91CF91089576
:1037A0000F931F93CF93DF93009709F48CC0FC0114
:1037B0003297138212820091160D1091170D011588
:1037C000110581F420813181820F931F2091140D06
:1037D0003091150D2817390779F5F093150DE09301
:1037E000140D71C0D80140E050E0AE17BF0750F48F
:1037F00012962D913C911397AD012115310509F1D8
:10380000D901F3CF9D01DA01338322836081718175
:10381000860F971F8217930769F4EC01288139817D
:10382000260F371F2E5F3F4F318320838A819B8174
:1038300093838283452B29F4F093170DE093160DA3
:1038400042C01396FC93EE931297ED014991599162
:103850009E01240F351FE217F30771F480819181D7
:10386000840F951F029611969C938E93828193816B
:1038700013969C938E931297E0E0F0E0D801129695
:103880008D919C911397009719F0F8018C01F6CF58
:103890008D919C9198012E5F3F4F820F931F209135
:1038A000140D3091150D2817390769F4309729F454
:1038B0001092170D1092160D02C0138212821093EF
:1038C000150D0093140DDF91CF911F910F91089565
:1038D0006F927F928F929F92AF92BF92CF92DF9220
:1038E000EF92FF920F931F93CF93DF93EC0100971A
:1038F00081F4CB01DF91CF911F910F91FF90EF9059
:10390000DF90CF90BF90AF909F908F907F906F90FF
:10391000B2CEFC01E60FF71F9C0122503109E217DD
:10392000F30708F4A8C0D9010D911C91119706174F
:103930001707A8F00530110508F49BC0C8010497CB
:103940008617970708F495C002501109061B170B3C
:10395000019311936D937C93CF0122DF8AC05B01A9
:10396000A01AB10A4C01800E911EA091160DB091C3
:10397000170D40E050E0E12CF12C109709F44AC0FB
:10398000A815B905D1F56D907C901197630182E07F
:10399000C80ED11CCA14DB0480F1A3014A195B09CB
:1039A0006A0182E0C80ED11C1296BC901297139641
:1039B000AC91B5E0CB16D10440F0B282A383518321
:1039C0004083D9016D937C930AC00E5F1F4FC301E2
:1039D000800F911FF90191838083EB2DFA2FE11461
:1039E000F10431F0D7011396FC93EE93129741C086
:1039F000F093170DE093160D3CC08D919C9111979B
:103A00004817590708F4AC017D0112960D90BC913E
:103A1000A02DB3CF8091140D9091150D88159905A7
:103A2000E1F446175707C8F48091280290912902C3
:103A3000009741F48DB79EB740912C0250912D0212
:103A4000841B950BE817F907B0F4F093150DE0937C
:103A5000140DF901718360830CC0CB010CDE7C0175
:103A6000009749F0A801BE011BD0CE0199DEC70125
:103A700004C0CE0102C080E090E0DF91CF911F91A1
:103A80000F91FF90EF90DF90CF90BF90AF909F90FD
:103A90008F907F906F90089581E090E0F89428C017
:103AA000FB01DC0102C001900D9241505040D8F75B
:103AB0000895FB01DC018D91019080190110D9F36B
:103AC000990B0895FB01DC0101900D920020E1F7B4
:103AD0000895FB01DC014150504048F001900D92E7
:103AE0000020C9F701C01D9241505040E0F70895F1
:103AF00011E0C8E0D1E000E005C0802FFE01ADDD9F
:103B00002196011DC930D10780E00807B1F7F8946C
:023B1000FFCFE5
:103B1200150C210C390C2D0C450CA50C990C8D0C97
:103B2200810C750C690C5D0C510C090CFD0BE50B3D
:103B3200F10B0000FFFFFFFF0000180D80000000E6
:103B42000000BF0858089C080509C00A9E0AB20A6C
:103B520000000000131058083C013B01544F555F10
:103B6200444F574E506F7043616C6C6261636B00DF
:103B72007074723D00544F555F434357506F70430A
:103B8200616C6C6261636B00544F555F4357506FB9
:103B92007043616C6C6261636B00544F555F5550AA
:103BA20020506F7043616C6C6261636B00544F55BF
:103BB2005F43575075736843616C6C6261636B005D
:103BC200544F555F4343575075736843616C6C6241
:103BD20061636B00544F555F444F574E5075736885
:103BE20043616C6C6261636B00544F555F555020AA
:103BF2005075736843616C6C6261636B004527208A
:103C02007374617461207269636869616D61746162
:103C1200206C612066756E7A696F6E652020726F06
:103C220074617A696F6E6528292000526F74617A17
:103C3200696F6E652043435720696E20636F72730C
:103C42006F2000526F74617A696F6E65204357204E
:103C5200696E20636F72736F200045272073746151
:103C62007461207269636869616D617461206C615D
:103C72002066756E7A696F6E65207365725F707209
:103C8200696E745F617A696D75742829005F5F5F80
:103C92005F5F5F5F5F5F5F5F5F5F5F5F5F5F5F5F32
:103CA2005F5F5F5F5F5F5F5F5F007C5441524745CC
:103CB20054203D20007C4C415354205441524745EE
:103CC20054203D20007C43555252454E543D200025
:103CD2007C444946462866756E6374696F6E293D59
:103CE20020000D0A0042544E5F4D454D37506F7013
:103CF20043616C6C6261636B0042544E5F4D454D93
:103D020036506F7043616C6C6261636B0042544E5B
:103D12005F4D454D35506F7043616C6C6261636BF2
:103D22000042544E5F4D454D34506F7043616C6C90
:103D32006261636B0042544E5F4D454D33506F706C
:103D420043616C6C6261636B0042544E5F4D454D42
:103D520032506F7043616C6C6261636B0042544E0F
:103D62005F4D454D31506F7043616C6C6261636BA6
:103D72000042544E5F4D454D30506F7043616C6C44
:103D82006261636B002E7478743D22002E76616C42
:103D92003D0042544E5F415A494D55545F454E5481
:103DA20020506F7043616C6C6261636B0067657475
:103DB20020002E74787400726563765265745374B1
:103DC20072696E675B002C005D007C2D2D2D2D2D00
:103DD2002D2D2D2D2D2D2D2D2D2D2D2D2D2D2D2D11
:103DE2002D2D2D2D2D2D2D2D2D7C007C20202020C4
:103DF20020202020202020202020204255464645F9
:103E020052203D200020202020207C007C54415262
:103E12004745542064612061746F692042554646CB
:103E22004552203D200042544E5F4D454D5F57455F
:103E32005354506F7043616C6C6261636B00425407
:103E42004E5F4D454D5F535544506F7043616C6CEE
:103E52006261636B0042544E5F4D454D5F45535462
:103E6200506F7043616C6C6261636B0042544E5FD1
:103E72004D454D5F4E4F5244506F7043616C6C62C2
:103E820061636B00452720737461746120726963FA
:103E92006869616D617461206C612066756E7A6912
:103EA2006F6E652020617A696D75745F63757272D9
:103EB200656E74282900452720737461746120722D
:103EC20069636869616D617461206C612066756EF9
:103ED2007A696F6E652020656C6576617A5F6375BD
:103EE2007272656E74282900626B636D643D3100E5
:103EF20070616765203000736574757020646F6E41
:103F02006500286E756C6C29007C564F49442072FE
:103F12006F74617A696F6E655F4343572829006F3A
:103F2200676E69207365636F6E646F2C20726963BC
:103F32006869616D61746120726F74617A696F6E14
:103F420065204343570053544F50004369636C6FDD
:103F5200204946207269636869616D61746F2064EB
:103F62006120726F74617A696F6E6528292C2072E4
:103F720069636869616D61746120726F74617A69E5
:103F82006F6E65204357004527207374617461206A
:103F92007269636869616D617461206C6120667524
:103FA2006E7A696F6E6520726F74617A696F6E6581
:103FB2005F43572829006F676E69207365636F6ED0
:103FC200646F2C207269636869616D61746120722B
:103FD2006F74617A696F6E65204357003A005041F1
:103FE200475F4552524F520042544E5F4D454D304D
:103FF2000042544E5F4D454D310042544E5F4D4597
:104002004D320042544E5F4D454D330042544E5F97
:104012004D454D340042544E5F4D454D350042549E
:104022004E5F4D454D360042544E5F4D454D370073
:1040320042544E5F415A494D55545F454E540054C7
:104042004F555F555000544F555F444F574E0054E3
:104052004F555F435700544F555F43435700544FEA
:10406200555F4D454D5F5745535400544F555F4D75
:10407200454D5F45535400544F555F4D454D5F4E7E
:104082004F524400544F555F4D454D5F53554400C8
:104092005458545F415A494D5554005458545F4541
:1040A2004C4556415A005458545F54415247455466
:1040B200004741555F415A494D5554004741555FAC
:1040C200454C4556415A0056415F5441524745546A
:1040D2005F494E540056415F544152474554007265
:1040E200656376526574436F6D6D616E6446696E89
:1040F2006973686564206F6B0072656376526574DC
:10410200436F6D6D616E6446696E697368656420A4
:10411200657272002E70636F3D0072656620002E1C
:0641220062636F3D000026
:020000023000CC
:10E000000D9489F10D94B2F10D94B2F10D94B2F129
:10E010000D94B2F10D94B2F10D94B2F10D94B2F1F0
:10E020000D94B2F10D94B2F10D94B2F10D94B2F1E0
:10E030000D94B2F10D94B2F10D94B2F10D94B2F1D0
:10E040000D94B2F10D94B2F10D94B2F10D94B2F1C0
:10E050000D94B2F10D94B2F10D94B2F10D94B2F1B0
:10E060000D94B2F10D94B2F10D94B2F10D94B2F1A0
:10E070000D94B2F10D94B2F10D94B2F10D94B2F190
:10E080000D94B2F10D94B2F10D94B2F10D94B2F180
:10E090000D94B2F10D94B2F10D94B2F10D94B2F170
:10E0A0000D94B2F10D94B2F10D94B2F10D94B2F160
:10E0B0000D94B2F10D94B2F10D94B2F10D94B2F150
:10E0C0000D94B2F10D94B2F10D94B2F10D94B2F140
:10E0D0000D94B2F10D94B2F10D94B2F10D94B2F130
:10E0E0000D94B2F141546D656761323536300041AF
:10E0F000726475696E6F206578706C6F72657220DE
:10E1000073746B3530305632206279204D4C530099
:10E11000426F6F746C6F616465723E004875683F52
:10E1200000436F6D70696C6564206F6E203D200048
:10E130004350552054797065202020203D20005FF9
:10E140005F4156525F415243485F5F3D2000415658
:10E1500052204C696243205665723D20004743437C
:10E160002056657273696F6E203D20004350552024
:10E1700049442020202020203D20004C6F7720663D
:10E18000757365202020203D20004869676820665F
:10E190007573652020203D200045787420667573D6
:10E1A00065202020203D20004C6F636B2066757336
:10E1B000652020203D20004D617220203720323024
:10E1C000313300312E362E3800342E332E350056A2
:10E1D00023202020414444522020206F7020636F70
:10E1E00064652020202020696E73747275637469E1
:10E1F0006F6E2061646472202020496E74657272B3
:10E20000757074006E6F20766563746F7200726A49
:10E210006D702020006A6D70200057686174207056
:10E220006F72743A00506F7274206E6F7420737541
:10E2300070706F72746564004D7573742062652030
:10E2400061206C6574746572002000577269747483
:10E25000696E672045450052656164696E672045B7
:10E26000450045452065727220636E743D00504F35
:10E27000525400303D5A65726F2061646472003FF1
:10E280003D43505520737461747300403D454550C3
:10E29000524F4D207465737400423D426C696E6B41
:10E2A000204C454400453D44756D70204545505215
:10E2B0004F4D00463D44756D7020464C415348001B
:10E2C000483D48656C70004C3D4C69737420492F83
:10E2D0004F20506F72747300513D51756974005234
:10E2E0003D44756D702052414D00563D73686F7707
:10E2F00020696E7465727275707420566563746FF0
:10E30000727300593D506F727420626C696E6B00BD
:10E310002A0011241FBECFEFD1E2DEBFCDBF01E046
:10E320000CBF12E0A0E0B2E0EEE1FDEF03E00BBFB6
:10E3300002C007900D92A030B107D9F712E0A0E01B
:10E34000B2E001C01D92AE30B107E1F70F9460F367
:10E350000D948DFE01E20EBF0FEF0DBF11241FBE05
:10E360000D9460F30D9400F020E030E040ED57E0B4
:10E3700005C0FA013197F1F72F5F3F4F2817390792
:10E38000C0F308959C01260F311DC901A0E0B0E043
:10E390002F5F3F4FABBFFC018791882361F08093D3
:10E3A000C6008091C00086FFFCCF8091C0008064D1
:10E3B0008093C000EACF08958DE08093C6008091DD
:10E3C000C00086FFFCCF8091C00080648093C000B5
:10E3D0008AE08093C6008091C00086FFFCCF8091C8
:10E3E000C00080648093C00008950F94C2F10F9420
:10E3F000DCF10895FC019081992359F09093C600B7
:10E400008091C00086FFFCCF8091C0008064809323
:10E41000C0003196992379F70895282F982F929567
:10E420009F70892F805D8A3308F0895F8093C600D2
:10E430008091C00086FFFCCF8091C00080648093F3
:10E44000C000822F8F70982F905D9A3308F0995FEB
:10E450009093C6008091C00086FFFCCF8091C000E1
:10E4600080648093C00008959C01FB01853691056E
:10E470001CF46330710594F0C90164E670E00F94F8
:10E480002EFE605D7F4F6093C6008091C00086FFC6
:10E49000FCCF8091C00080648093C0002B30310598
:10E4A00014F43297B4F0C90164E670E00F942EFEC4
:10E4B0006AE070E00F942EFE605D7F4F6093C600AF
:10E4C0008091C00086FFFCCF8091C0008064809363
:10E4D000C000C9016AE070E00F942EFEC0968093E0
:10E4E000C6008091C00086FFFCCF8091C000806490
:10E4F0008093C00008951F93182F8EE692EE60E07F
:10E500000F94C2F11093C6008091C00086FFFCCF2B
:10E510008091C00080648093C0000F94DCF11F9153
:10E5200008952F923F924F925F926F927F928F92B7
:10E530009F92AF92BF92CF92DF92EF92FF920F9392
:10E540001F93DF93CF93CDB7DEB762970FB6F894E2
:10E55000DEBF0FBECDBF382E622ECA01DB015C01CB
:10E560006D01772420E2222E2E010894411C511CBB
:10E570008BC081E0A81680E0B80681E0C80680E084
:10E58000D80628F0C601AA27BB270F940DF2BB2797
:10E59000AD2D9C2D8B2D0F940DF28A2D0F940DF225
:10E5A0002092C6008091C00086FFFCCF8091C00001
:10E5B00080648093C0009DE29093C6008091C0006B
:10E5C00086FFFCCF8091C00080648093C0002092C1
:10E5D000C6008091C00086FFFCCF8091C00080649F
:10E5E0008093C00019828601750188249924A1E0D6
:10E5F0003A1651F03A1620F0B2E03B1661F409C029
:10E600000BBFF701779007C0C7010F9477FE782EF4
:10E6100002C0F7017080872D0F940DF22092C60082
:10E620008091C00086FFFCCF8091C0008064809301
:10E63000C000872D8052F401EF70F0708F3520F408
:10E64000E40DF51D708204C0E40DF51D8EE280839B
:10E650000894E11CF11C011D111D0894811C911CE2
:10E6600090E18916910409F0C2CF80E190E0A0E02A
:10E67000B0E0A80EB91ECA1EDB1E198AC2010F9493
:10E68000FAF10F94DCF16A94662009F072CF629679
:10E690000FB6F894DEBF0FBECDBFCF91DF911F91B3
:10E6A0000F91FF90EF90DF90CF90BF90AF909F9031
:10E6B0008F907F906F905F904F903F902F90089534
:10E6C0002F923F924F925F926F927F928F929F9282
:10E6D000AF92BF92CF92DF92EF92FF920F931F9370
:10E6E000DF93CF93CDB7DEB7CD53D1400FB6F894BB
:10E6F000DEBF0FBECDBF01E20EBF0FEF0DBF94B75F
:10E70000F894A89514BE80916000886180936000A1
:10E7100010926000789493FF05C0E0910002F091A0
:10E7200001021995279A2F9A8091C00082608093E8
:10E73000C00080E18093C40088E18093C1000000A4
:10E74000EE24FF24870144E0A42EB12CCC24DD2448
:10E7500024C0C5010197F1F70894E11CF11C011DCB
:10E76000111D21E2E2162EE4F20620E0020720E06D
:10E77000120718F031E0C32ED12CC801B70127ECE5
:10E780003BE140E050E00F9441FE611571058105C9
:10E79000910519F485B1805885B98091C00087FD35
:10E7A00003C0C114D104A9F2A6014F5F5F4FC25E3E
:10E7B000DE4F59834883CE51D140C25EDE4F8881FF
:10E7C0009981CE51D140019711F00D9410FEC05D9A
:10E7D000DE4F19821882C053D14060E0C15DDE4F28
:10E7E0001882CF52D14088249924C35DDE4F19820C
:10E7F0001882CD52D140C05EDE4F188219821A8233
:10E800001B82C052D140CE5CDE4F188219821A8220
:10E810001B82C253D140EE24FF2487010BBFF701B6
:10E8200007911691C45CDE4F19830883CC53D14005
:10E830000D940BFEC25EDE4F28813981CE51D1404E
:10E840002130310509F52091C600C25EDE4F1982E4
:10E850001882CE51D14022C02F5F3F4F4F4F5F4FA4
:10E86000213082E138078AE7480780E0580780F0C6
:10E87000C45CDE4FE881F981CC53D140EF5FFF4F9C
:10E8800019F0EE27FF27099420E030E040E050E047
:10E890008091C00087FFE0CF2091C600C35DDE4FAE
:10E8A00048815981CD52D1404F5F5F4FC35DDE4FEC
:10E8B00059834883CD52D140213209F063C64A3092
:10E8C000510508F05FC60894811C911C53E0851621
:10E8D000910409F059C600E010E018C081E280936D
:10E8E000C6008091C00086FFFCCF8091C00080648C
:10E8F0008093C0002F5F3F4F2931310579F70F9486
:10E90000DCF10F5F1F4F0530110519F020E030E0FA
:10E91000E5CF10920A0210920B0210920C02109294
:10E920000D02109206021092070210920802109235
:10E930000902109202021092030210920402109235
:10E9400005028FEE90EE60E00F94F5F180E191EE1C
:10E9500060E00F94C2F18091C00087FFFCCF9091DE
:10E96000C600903608F09F759032B8F09093C600BC
:10E970008091C00086FFFCCF8091C00080648093AE
:10E98000C000A0E2A093C6008091C00086FFFCCF2B
:10E990008091C00080648093C000983409F4D7C18E
:10E9A0009934B8F4923409F459C1933458F490333B
:10E9B00019F1903308F4E3C59F33A1F1903409F0C5
:10E9C000DEC5BDC0953409F470C1963409F0D7C5D1
:10E9D00098C1923509F42BC2933538F49C3409F46C
:10E9E000F5C1913509F0CBC518C2963509F445C279
:10E9F000993509F0C4C567C483E792EE62E00F94CD
:10EA0000F5F110920602109207021092080210927D
:10EA1000090210920A0210920B0210920C0210923C
:10EA20000D0213C18FE792EE62E00F94F5F18FEEC5
:10EA300090EE60E00F94F5F181E291EE60E00F94CA
:10EA4000C2F187EB91EE60E00F94F5F180E391EE77
:10EA500060E00F94C2F184EE90EE60E00F94F5F167
:10EA60008FE391EE60E00F94C2F186E090E061E008
:10EA700070E00F9434F20F94DCF18DE591EE60E0DC
:10EA80000F94C2F189EC91EE60E00F94F5F18EE401
:10EA900091EE60E00F94C2F183EC91EE60E00F9490
:10EAA000F5F18CE691EE60E00F94C2F18EE10F94E7
:10EAB0000DF288E90F940DF281E00F940DF20F949E
:10EAC000DCF18BE791EE60E00F94C2F119E0E0E039
:10EAD000F0E010935700E4918E2F0F940DF20F94F5
:10EAE000DCF18AE891EE60E00F94C2F1E3E0F0E03F
:10EAF00010935700E4918E2F0F940DF20F94DCF1D8
:10EB000089E991EE60E00F94C2F1E2E0F0E0109349
:10EB10005700E4918E2F0F940DF20F94DCF188EAE8
:10EB200091EE60E00F94C2F1E1E0F0E01093570045
:10EB30001491812F0F940DF20F94DCF107CF8BE825
:10EB400092EE62E00F94F5F18BE492EE60E00F94A8
:10EB5000F5F10F94DCF100E010E019C0C8016F2D51
:10EB60000F947FFEFF2031F489E492EE60E00F9471
:10EB7000C2F10BC0F092C6008091C00086FFFCCFAE
:10EB80008091C00080648093C0000F5F1F4FC80158
:10EB900081519F41A0E0B0E0ABBFFC01F790BAE229
:10EBA000FB1621F0E2E000301E07C1F60F94DCF105
:10EBB0000F94DCF187E592EE60E00F94F5F10F948D
:10EBC000DCF1CC24DD2400E010E01EC0C8010F946D
:10EBD00077FEF82E882331F489E492EE60E00F94FA
:10EBE000C2F10BC08093C6008091C00086FFFCCFAD
:10EBF0008091C00080648093C000FE1419F00894D6
:10EC0000C11CD11C0F5F1F4FC80181519F41A0E063
:10EC1000B0E0ABBFFC01E790FAE2EF1621F022E092
:10EC20000030120799F60F94DCF10F94DCF182E6C4
:10EC300092EE60E00F94C2F1C60161E070E00F94C3
:10EC400034F20F94DCF10F94DCF110920202109276
:10EC50000302109204021092050278CE89E992EE26
:10EC600062E00F94F5F1279A2F9A16C02F9880E052
:10EC700090E0E0EDF7E03197F1F7019684369105E9
:10EC8000C1F72F9A80E090E0E0EDF7E03197F1F7DF
:10EC9000019684369105C1F78091C00087FFE6CFC9
:10ECA0008091C00087FFFCCF64C485EA92EE62E0E9
:10ECB0000F94F5F140910202509103026091040219
:10ECC0007091050281E020E10F9491F2809102029F
:10ECD00090910302A0910402B091050280509F4FD1
:10ECE000AF4FBF4F8093020290930302A0930402A0
:10ECF000B093050280509041A040B04008F426CE69
:10ED0000A4CF83EB92EE62E00F94F5F140910602FE
:10ED100050910702609108027091090280E020E1A1
:10ED20000F9491F28091060290910702A09108023F
:10ED3000B091090280509F4FAF4FBF4F80930602A2
:10ED400090930702A0930802B0930902FFCD80ECD4
:10ED500092EE62E00F94F5F183E792EE60E00F949B
:10ED6000F5F18FE792EE60E00F94F5F18BE892EE0B
:10ED700060E00F94F5F189E992EE60E00F94F5F10F
:10ED800085EA92EE60E00F94F5F183EB92EE60E09D
:10ED90000F94F5F180EC92EE60E00F94F5F187ECC2
:10EDA00092EE60E00F94F5F188ED92EE60E00F9442
:10EDB000F5F18FED92EE60E00F94F5F18AEE92EEB0
:10EDC00060E00F94F5F183E093EEBDCD87EC92EE19
:10EDD00062E00F94F5F181E40F947BF282E40F94EA
:10EDE0007BF283E40F947BF284E40F947BF285E45E
:10EDF0000F947BF286E40F947BF287E40F947BF20E
:10EE000088E40F947BF28AE40F947BF28BE40F94F6
:10EE10007BF28CE40F947BF299CD88ED92EE62E068
:10EE20000F94F5F1772473948824992409C48FED05
:10EE300092EE62E00F94F5F140910A0250910B02BC
:10EE400060910C0270910D0282E020E10F9491F22A
:10EE500080910A0290910B02A0910C02B0910D02D8
:10EE600080509F4FAF4FBF4F80930A0290930B0289
:10EE7000A0930C02B0930D0269CD8AEE92EE62E08F
:10EE80000F94F5F184EE90EE60E00F94F5F18FECC5
:10EE900091EE60E00F94F5F1662477244301CC5D98
:10EEA000DE4F19821882C452D140D401C301B695F5
:10EEB000A79597958795CA5DDE4F88839983AA8326
:10EEC000BB83C652D140CC5DDE4FA881B981C4520C
:10EED000D1401196CC5DDE4FB983A883C452D14096
:10EEE000CD0162E070E00F9434F2B0E2B093C6005E
:10EEF0008091C00086FFFCCF8091C0008064809329
:10EF0000C000EDE2E093C6008091C00086FFFCCF18
:10EF10008091C00080648093C000F0E2F093C6004E
:10EF20008091C00086FFFCCF8091C00080648093F8
:10EF3000C000CA5DDE4FE880F9800A811B81C6529D
:10EF4000D140BB27A12F902F8F2D0F940DF2CA5DBA
:10EF5000DE4F8881C652D1400F940DF2B0E2FB2EF5
:10EF6000F092C6008091C00086FFFCCF8091C00067
:10EF700080648093C0000DE30093C6008091C000C0
:10EF800086FFFCCF8091C00080648093C00010E2B7
:10EF90001093C6008091C00086FFFCCF8091C00016
:10EFA00080648093C0008BBEF3012791C65DDE4F65
:10EFB0002883CA52D140A22EBB24CC24DD2408943D
:10EFC000611C711C811C911C8BBEF3018791282E42
:10EFD0003324442455240894611C711C811C911C09
:10EFE0008BBEF3013791C55DDE4F3883CB52D140E4
:10EFF0000894611C711C811C911C8BBEF30147910C
:10F00000C45DDE4F4883CC52D140ADEFEA2EAFEF66
:10F01000FA2EAFEF0A2FAFEF1A2F6E0C7F1C801E57
:10F02000911E142D032DF22CEE24EA0CFB1C0C1D5A
:10F030001D1D0F940DF220E22093C6008091C000A8
:10F0400086FFFCCF8091C00080648093C000C65DC5
:10F05000DE4F8881CA52D1400F940DF230E23093D6
:10F06000C6008091C00086FFFCCF8091C000806404
:10F070008093C000C45DDE4F8881CC52D1400F9494
:10F080000DF240E24093C6008091C00086FFFCCFA5
:10F090008091C00080648093C000C55DDE4F888190
:10F0A000CB52D1400F940DF250E25093C6008091A4
:10F0B000C00086FFFCCF8091C00080648093C000B8
:10F0C0008FEFE8168FEFF80680E0080780E018075A
:10F0D00031F484E092EE60E00F94C2F1DFC0D80119
:10F0E000C7018070907CA070B0708050904CA040A0
:10F0F000B040D1F52FEF3FE340E050E0E222F322B1
:10F1000004231523CA5DDE4FA880B980CA80DB8046
:10F11000C652D140AE0CBF1CC01ED11EAA0CBB1CD7
:10F12000CC1CDD1C8EE092EE60E00F94C2F1BB2798
:10F13000A12F902F8F2D0F940DF28E2D0F940DF285
:10F1400030E23093C6008091C00086FFFCCF8091F2
:10F15000C00080648093C0004EE34093C60080915D
:10F16000C00086FFFCCF87C08EE09EEFA0E0B0E03D
:10F17000E822F9220A231B239CE0E91694E9F90608
:10F1800090E0090790E0190709F088C0C45DDE4FE0
:10F19000A881CC52D140EA2EFF2400E010E0102FCD
:10F1A0000F2DFE2CEE24C55DDE4FB881CB52D14031
:10F1B000EB0EF11C011D111DD601C501817090706F
:10F1C000A070B070DC0199278827E80EF91E0A1F8D
:10F1D0001B1F20EF30E040E050E0A222B322C42207
:10F1E000D52241E1AA0CBB1CCC1CDD1C4A95D1F7F1
:10F1F000EA0CFB1C0C1D1D1D81E090E0A0E0B0E0BE
:10F20000282239224A225B2235E1220C331C441C7D
:10F21000551C3A95D1F7E20CF31C041D151D57013E
:10F220006801AA0CBB1CCC1CDD1C85E192EE60E0E1
:10F230000F94C2F1C801AA27BB270F940DF2BB2778
:10F24000A12F902F8F2D0F940DF28E2D0F940DF274
:10F2500090E29093C6008091C00086FFFCCF809121
:10F26000C00080648093C000AEE3A093C60080918C
:10F27000C00086FFFCCF8091C00080648093C000F6
:10F28000C601AA27BB270F940DF2BB27AD2D9C2DDD
:10F290008B2D0F940DF28A2D0F940DF20F94DCF14B
:10F2A000CC5DDE4FE881F981C452D140F99709F471
:10F2B0004DCBF4E0EF2EF12C012D112D6E0C7F1CA7
:10F2C000801E911EF2CD83E093EE62E00F94F5F183
:10F2D0008AE192EE60E00F94C2F18091C00087FF56
:10F2E000FCCF1091C6001F751093C6008091C0001E
:10F2F00086FFFCCF8091C00080648093C0000F9493
:10F30000DCF1812F81548A3108F036C1163409F4BA
:10F3100095C0173490F4133409F44EC0143430F40B
:10F320001134F1F0123409F01DC130C0143409F465
:10F3300059C0153409F016C16BC01A3409F4C4C0A1
:10F340001B3438F4173409F48FC0183409F00AC19B
:10F35000A1C01B3409F4D2C01C3409F003C1E8C0B9
:10F360008FEF81B90DC082B1809582B980E090E0C5
:10F37000E0EDF7E03197F1F70196883C9105C1F790
:10F380008091C00087FFEFCF12B8EFC08FEF84B934
:10F390000DC085B1809585B980E090E0E0EDF7E0A3
:10F3A0003197F1F70196883C9105C1F78091C00033
:10F3B00087FFEFCF15B8D9C08FEF87B90DC088B1DF
:10F3C000809588B980E090E0E0EDF7E03197F1F7C3
:10F3D0000196883C9105C1F78091C00087FFEFCF6F
:10F3E00018B8C3C08FEF8AB90DC08BB180958BB9A7
:10F3F00080E090E0E0EDF7E03197F1F70196883C8E
:10F400009105C1F78091C00087FFEFCF1BB8ADC059
:10F410008FEF8DB90DC08EB180958EB980E090E0F0
:10F42000E0EDF7E03197F1F70196883C9105C1F7DF
:10F430008091C00087FFEFCF1EB897C08FEF80BBD1
:10F440000DC081B3809581BB80E090E0E0EDF7E0F6
:10F450003197F1F70196883C9105C1F78091C00082
:10F4600087FFEFCF11BA81C08FEF83BB0DC084B38C
:10F47000809584BB80E090E0E0EDF7E03197F1F714
:10F480000196883C9105C1F78091C00087FFEFCFBE
:10F4900014BA6BC08FEF809301010FC080910201FD
:10F4A00080958093020180E090E0E0EDF7E03197F5
:10F4B000F1F70196883C9105C1F78091C00087FF64
:10F4C000EDCF1092020151C08FEF809304010FC065
:10F4D0008091050180958093050180E090E0E0ED4A
:10F4E000F7E03197F1F70196883C9105C1F78091DB
:10F4F000C00087FFEDCF1092050137C08FEF8093DA
:10F5000007010FC08091080180958093080180E079
:10F5100090E0E0EDF7E03197F1F70196883C910536
:10F52000C1F78091C00087FFEDCF109208011DC088
:10F530008FEF80930A010FC080910B01809580931B
:10F540000B0180E090E0E0EDF7E03197F1F70196F4
:10F55000883C9105C1F78091C00087FFEDCF1092E4
:10F560000B0103C085E292EEEEC98091C00087FFD7
:10F57000FCCF8091C600EAC988E392EEE4C98CE131
:10F5800091EEE1C988249924933011F1943028F444
:10F59000913089F09230B8F408C0953061F195301F
:10F5A000F0F0963009F048C043C02B3109F042C951
:10F5B00091E06BE13FC96227C15DDE4F2883CF52E6
:10F5C000D14092E037C9B22FA0E0622793E032C960
:10F5D000822F90E0A82BB92B622794E02BC92E3004
:10F5E00009F039C3622795E0C05DDE4F19821882A9
:10F5F000C053D1401FC9E1E0F0E0EC0FFD1FC05D3A
:10F60000DE4F08811981C053D140E00FF11F2083E4
:10F610000F5F1F4FC05DDE4F19830883C053D14079
:10F6200062270A171B0709F005C9D80196E002C92D
:10F63000261709F010C303C0973009F0FBC87724E0
:10F640009981933109F412C19431C8F4963009F4C8
:10F65000D8C0973050F4923009F406C1933009F4C1
:10F660006DC0913009F059C253C0913109F477C08F
:10F67000923108F0BBC0903109F04FC2F5C098310B
:10F6800009F487C0993150F4953109F4EFC09531F0
:10F6900008F4C6C1963109F040C2C2C19A3109F4DA
:10F6A0006CC09A3108F491C09B3109F45BC09D3164
:10F6B00009F033C29D81903359F48F81882311F46E
:10F6C0009EE11CC0813011F091E018C098E916C08D
:10F6D000892F807591F0903539F4E0E0F0E089E011
:10F6E0008093570094910AC0983539F4E3E0F0E034
:10F6F00089E080935700949101C090E01A821B82A8
:10F700008D818C831D829E831F8227E030E009C299
:10F710001A8288E08B8381E48C8386E58D8382E581
:10F720008E8389E48F8383E5888780E589878FE5E9
:10F730008A8782E38B872BE030E0F3C18A818139AD
:10F7400041F0823941F0803911F48FE005C080E04A
:10F7500003C082E001C08AE01A828B8344C0772410
:10F76000739482C08D81882311F48EE12CC0813086
:10F7700011F081E028C088E926C01A82E1E0F0E0BB
:10F7800089E08093570084918B831C8224E030E0D1
:10F79000C8C18B81803589F48C81883039F4E2E0EE
:10F7A000F0E089E08093570084910DC0E0E0F0E044
:10F7B00089E080935700849106C0E3E0F0E089E09F
:10F7C0008093570084911A82DFCF8D81836C99E0FA
:10F7D000E1E0F0E0082E90935700E89507B600FCB2
:10F7E000FDCF1A821B8223E030E09BC180EC8A832C
:10F7F000CE5CDE4F188219821A821B82C253D1401E
:10F800008EC18A8190E0A0E0B0E0582F44273327D2
:10F8100022278B8190E0A0E0B0E0DC0199278827C7
:10F82000282B392B4A2B5B2B8D8190E0A0E0B0E098
:10F83000282B392B4A2B5B2B8C8190E0A0E0B0E089
:10F84000BA2FA92F982F8827282B392B4A2B5B2BCF
:10F85000220F331F441F551FC05EDE4F288339839C
:10F860004A835B83C052D1401A8259C13A81C95C34
:10F87000DE4F3883C753D140CA5CDE4F1882C6536F
:10F88000D1408B81C82EDD24CA5CDE4F488159816E
:10F89000C653D140C42AD52A933109F082C0CE5C28
:10F8A000DE4F88819981AA81BB81C253D1408050AB
:10F8B000904CA340B04030F583E0CE5CDE4FE88052
:10F8C000F9800A811B81C253D140F70100935B008C
:10F8D00080935700E89507B600FCFDCFCE5CDE4F65
:10F8E000088119812A813B81C253D14000501F4FAA
:10F8F0002F4F3F4FCE5CDE4F088319832A833B8313
:10F90000C253D140C05EDE4F488159816A817B81FC
:10F91000C052D140DE011B9631E08C9111962C91A2
:10F9200011971296C75CDE4F2883C953D140C85C3B
:10F93000DE4F1882C853D14090E0C85CDE4FE881AA
:10F94000F981C853D1408E2B9F2B0C01FA01609393
:10F950005B0030935700E89511244E5F5F4F6F4F67
:10F960007F4F0EEFE02E0FEFF02ECE0CDF1CC114F8
:10F97000D10499F685E0C05EDE4F088119812A81A5
:10F980003B81C052D140F80120935B008093570027
:10F99000E89507B600FCFDCF81E180935700E8951C
:10F9A00035C0C05EDE4F88819981AA81BB81C0527B
