:1000000007C1000036C1000034C1000032C1000049
:1000100030C100002EC100002CC100002AC1000028
:1000200028C1000063C7000061C700005FC700006F
:1000300020C100001EC100001CC100001AC1000048
:1000400018C1000016C1000014C1000012C1000058
:1000500010C100000EC100000CC10000FDC6000070
:1000600008C100000C94B70B0C948E0B02C1000069
:1000700000C10000FEC00000FCC00000FAC000008B
:10008000F8C00000F6C00000F4C00000F2C000009C
:10009000F0C00000EEC00000ECC00000EAC00000AC
:1000A000E8C00000E6C00000E4C00000E2C00000BC
:1000B000E0C00000DEC00000DCC00000DAC00000CC
:1000C000D8C00000D6C00000D4C000000C94650B5E
:1000D0000C943C0BCEC00000CCC00000CAC0000095
:1000E000C8C000000E0C110C000C040C080C480CCD
:1000F000150C190C1F0C230C270C2D0C310C350C76
:10010000480C3B0C3F0C430C00000A0B02090C0D81
:100110000E080703040100000000000000000000BA
:1001200000000000000000000000000000000000CF
:10013000000000001211100000000000000000008C
:1001400000000000000000000000000000000000AF
:100150002200250028002B002E003100340002016F
:100160000000050108010B01000021002400270008
:100170002A002D00300033000101000004010701B6
:100180000A0105050505070508080808020202021C
:100190000A0A080804040404010101010101010123
:1001A0000303030303030303040707070C0C0C0CEE
:1001B0000C0C0C0C020202020606060606060606D7
:1001C0000B0B0B0B0B0B0B0B010210202008081064
:1001D00020401020408002010201080402010102B7
:1001E0000408102040808040201008040201800490
:1001F00002018040201008040201080402010102EB
:10020000040810204080010204081020408087105C
:1002100011241FBECFEFD1E2DEBFCDBF00E00CBF87
:1002200013E0A0E0B2E0E0E3F8E200E00BBF02C0C0
:1002300007900D92A636B107D9F727E0A6E6B3E0FE
:1002400001C01D92AE3BB207E1F711E0C8E0D1E07A
:1002500000E006C021970109802FFE010E94E311F2
:10026000C730D10780E00807A9F70E94E60E0C947A
:100270001614C6CE8EBD00000DB407FEFDCF8EB5A0
:1002800008958FEFF7CF089580E090E0089561E042
:10029000FC0184810E94E00B80916803811110921F
:1002A00068030895CF93DF93EC018E81882379F062
:1002B0008F8198859C012F5F3F4F38872F83823035
:1002C000924010F4DEDFF4CFCE01E1DF1E82DF9139
:1002D000CF9108952FB7F8946091730570917405CC
:1002E00080917505909176052FBF08950F931F9308
:1002F000CF93DF93EB01EEDF8B01C3DF8F3F41F044
:10030000E9DF601B710B6C177D07B8F380E001C05B
:1003100081E0DF91CF911F910F910895CF92DF92ED
:10032000FF920F931F93CF93DF9300D01F92CDB70F
:10033000DEB76C01F62E29833A834B835C83B2DFF0
:100340008091680329813A814B815C81811109C0C8
:1003500081E08093680390912307809124079CBDDE
:100360008DBD60E0F601848129833A834B835C83F1
:100370000E94E00B6CE271E0C601B8DF8F2D806453
:1003800079DF08E110E05C814B813A812981DA0153
:10039000C901002E04C0B695A795979587950A9434
:1003A000D2F729833A834B835C8364DF08501109B9
:1003B00029813A814B815C81083FFFEF1F0739F7A4
:1003C000FF2029F088E0F81204C087E803C085E91F
:1003D00001C08FEF4FDF10E054DFF601828787FF07
:1003E00004C01F3F11F01F5FF7CF0F900F900F90C9
:1003F0000F90DF91CF911F910F91FF90DF90CF90E1
:100400000895EF92FF920F931F93CF93DF93EC0128
:100410007901411551056105710511F482E134C07E
:100420008B85833039F089E0440F551F661F771F95
:100430008A95D1F79A01AB0168E1CE016FDF88237D
:1004400011F084E021C08EEF15DF87018EEFF81ADE
:10045000F80181918F010EDF0E151F05C9F78FEF8F
:1004600009DF8FEF07DF0DDF8A878F71853029F075
:1004700081E18D83CE010BDF08C068E572E0CE011B
:1004800035DF811106C085E18D83CE0100DF80E07C
:1004900010C020E030E0A9016DE0CE013FDF811106
:1004A00003C0EFDE882311F084E1EECFCE01EFDE52
:1004B00081E0DF91CF911F910F91FF90EF90089510
:1004C000CF93DF9380916B03882389F1C0916903F7
:1004D000D0916A03409100025091010260910202A2
:1004E0007091030220E733E0CE018BDF811102C05F
:1004F00080E01EC040916C0350916D0360916E03CB
:1005000070916F03411551056105710571F020E788
:1005100033E0CE0176DF882359F310926C031092FA
:100520006D0310926E0310926F0310926B0381E0C3
:10053000DF91CF910895BF92CF92DF92EF92FF9219
:100540000F931F93CF93DF936B017C01B42E8091A7
:10055000000290910102A0910202B09103028C1559
:100560009D05AE05BF0509F46DC0AADF882309F417
:1005700070C0C0916903D0916A038E81882369F0AD
:1005800088819981AA81BB81C816D906EA06FB0633
:1005900021F48F819885892B89F1C882D982EA82DA
:1005A000FB828B85A7019601833039F089E0220F09
:1005B000331F441F551F8A95D1F761E1CE01AEDE8E
:1005C000882319F083E08D8331C084DE8B0159DEEE
:1005D0008A878F3F41F47EDE601B710B6D32714064
:1005E000B0F38FE003C08E3F29F08DE08D83CE0104
:1005F0004EDE1CC018861F8281E08E8300E713E068
:1006000040DEF80181938F01F5E000371F07C1F745
:100610008F8198859E5F98878F832985222319F083
:100620008115924038F0CE013DDE04C0CE012FDEB0
:1006300080E00FC0C0920002D0920102E09202025C
:10064000F092030280916B03482F4B2940936B0378
:1006500081E0DF91CF911F910F91FF90EF90DF909C
:10066000CF90BF9008954F925F926F927F928F923A
:100670009F92AF92BF92CF92DF92EF92FF920F9331
:100680001F93CF93DF93EC016A017B0128013901AD
:10069000423051056105710510F480E072C0898512
:1006A0009A85AB85BC850196A11DB11D8417950760
:1006B000A607B70790F38B889C88AD88BE888F8982
:1006C000803129F4BB27AF2D9E2D8D2D09C0DB0174
:1006D000CA0147E0B695A795979587954A95D1F7B2
:1006E000880E991EAA1EBB1E8091000290910102E5
:1006F000A0910202B091030288169906AA06BB06D1
:1007000079F48F89803199F4DD24EE24FF24C60129
:10071000880F991FFC01E059FC4F5182408218C09C
:1007200040E0C501B40107DF8111EBCFB6CFE894FB
:10073000C7F8DD24EE24FF24C601880F991F880F17
:10074000991FFC01E059FC4F408251826282738202
:1007500080916B03816080936B038A89823080F083
:100760008D819E81AF81B885880E991EAA1EBB1E01
:1007700080926C0390926D03A0926E03B0926F030F
:1007800081E0DF91CF911F910F91FF90EF90DF906B
:10079000CF90BF90AF909F908F907F906F905F9021
:1007A0004F9008958F929F92AF92BF92CF92DF9217
:1007B000EF92FF920F931F93CF93DF93FC018185FC
:1007C0009285A385B4850196A11DB11D8417950757
:1007D000A607B70710F480E05BC083899489A589D8
:1007E000B689C789C03129F4852E962EA72EBB2441
:1007F00009C04A015B01C7E0B694A7949794879417
:10080000CA95D1F7E9016A017B018F01BC01CD01D5
:10081000680D791D8A1D9B1D809000029090010239
:10082000A0900202B0900302681579058A059B0525
:1008300099F4F80187898031A1F4B701A601552701
:1008400066277727440F551FFA01E059FC4F808136
:100850009181A0E0B0E017C040E06DDE8111E9CFEA
:10086000BACFB701A6014F77552766277727440FE0
:10087000551F440F551FFA01E059FC4F80819181AB
:10088000A281B381BF7088839983AA83BB8381E0EF
:10089000DF91CF911F910F91FF90EF90DF90CF905C
:1008A000BF90AF909F908F9008953F924F925F922C
:1008B0006F927F928F929F92AF92BF92CF92DF9270
:1008C000EF92FF920F931F93CF93DF93CDB7DEB7D5
:1008D0002C970FB6F894DEBF0FBECDBF5C01DC01D4
:1008E0005B968D909C905C971696CD90DD90ED90E8
:1008F000FC901997C114D104E104F10439F0BFEF61
:10090000CB1ADB0AEB0AFB0A312C07C0F401C080CA
:10091000D180E280F38033243394F4018185928581
:10092000A385B4859C01AD012F5F3F4F4F4F5F4FB3
:1009300029873A874B875C87260137011D821E82F3
:100940001F821886F40181859285A385B4852D8147
:100950003E814F815885281739074A075B0708F001
:1009600060C089859A85AB85BC858C159D05AE05D3
:10097000BF0550F482E0C82ED12CE12CF12C92E07E
:10098000492E512C612C712C9E012F5F3F4FB701D6
:10099000A601C40107DF882309F443C089819A8135
:1009A000AB81BC81892B8A2B8B2B41F0260137012F
:1009B0009FEF491A590A690A790A05C0C414D50477
:1009C000E604F70491F02D813E814F8158852F5F19
:1009D0003F4F4F4F5F4F2D833E834F8358873FEFED
:1009E000C31AD30AE30AF30AADCF0FEF1FEF2FEFBD
:1009F0003FE0B301A201C40136DE882391F0D501A6
:100A000016964D915D916D917C9119974115510507
:100A10006105710541F093018201C40124DE811159
:100A200002C080E02AC0D50116964D925D926D926B
:100A30007C921997332051F0D301C2010196A11D78
:100A4000B11DF40180839183A283B383F50187896B
:100A5000908DA18DB28D892B8A2B8B2B69F4D501BA
:100A600057964D925D926D927C925A9714968C9106
:100A70001497806814968C9381E02C960FB6F894A6
:100A8000DEBF0FBECDBFDF91CF911F910F91FF90C1
:100A9000EF90DF90CF90BF90AF909F908F907F901E
:100AA0006F905F904F903F9008954F925F926F923A
:100AB0007F928F929F92AF92BF92EF92FF920F938D
:100AC0001F93CF93DF9300D01F921F92CDB7DEB755
:100AD0008C016D83DC0115968C911597813009F09E
:100AE00056C014968C9181FF52C059C0038CF48D6E
:100AF000E02D258530E0275F3F4F2A013B01B1E023
:100B00004B1A510861087108022E04C0769467944C
:100B1000579447940A94D2F7D501C4010197A109CB
:100B2000B10904C0B695A795979587952A95D2F7F0
:100B300084159505A605B70508F06FC0F80147892B
:100B4000508D618D728D46835783608771872C012C
:100B50003D017801E6E0EE0EF11CD801411451048C
:100B60006104710409F463C016964D915D916D9115
:100B70007C91199797015B968D919C915C9712DE01
:100B8000B1E04B1A5108610871088111E6CF81E08C
:100B900090E0F8019383828380E090E049C182FF76
:100BA0000EC0F801428553856485758583889488D5
:100BB000A588B688481559056A057B05F1F4D80162
:100BC0001A964D915D916D917C911D975B968D91DB
:100BD0009C915C97FC0174807A944A015B0129E046
:100BE000B694A794979487942A95D1F778207A01A0
:100BF000F1E0FF22772011F162C081149104A10479
:100C0000B10409F073CF1682178210861186F8019D
:100C10001286138614861586D2CF452B462B472B7A
:100C200009F48CCF84199509A609B70990CF1A96B3
:100C30008D929D92AD92BC921D97C1CFE114F104AB
:100C400009F03DC0F80146815781608571854115E5
:100C500051056105710549F48789908DA18DB28D8B
:100C60000097A105B10531F520C09E012F5F3F4FD0
:100C700099DD882309F490CF89819A81AB81BC8169
:100C8000F801238D348DF9012789203129F048EFAF
:100C90005FEF6FEF7FE004C048EF5FEF60E070E070
:100CA00084179507A607B70728F0C801FEDD811154
:100CB00006C06DCFF80186839783A087B187D801DE
:100CC0005B96ED91FC915C9716968D909D90AD9002
:100CD000BC901997B2E08B1A9108A108B10805845D
:100CE00004C0880C991CAA1CBB1C0A94D2F78685E8
:100CF0009785A089B189880E991EAA1EBB1E870CF4
:100D0000911CA11CB11CE114F10401F5F80142850C
:100D100053856485758583899489A589B689481723
:100D200059076A077B0790F0CBDB882309F42FCFA4
:100D30008092000290920102A0920202B0920302FD
:100D400080916B03816080936B0307C041E0C50114
:100D5000B401F1DB882309F41ACFF701E059FC4F05
:100D60008D818083F80182859385A485B585019660
:100D7000A11DB11D82879387A487B58743895489B4
:100D800065897689481759076A077B0738F4838B8A
:100D9000948BA58BB68B848180688483D80114964C
:100DA0008C9183FD03C081E090E042C0F801958101
:100DB000992309F4ECCE87FF37C066857785808953
:100DC000918941E0B8DB882309F4E1CED80152963D
:100DD000EC91B0E2EB9F90011124D901A059BC4FD6
:100DE000109709F4D4CEF8018581823050F44389FC
:100DF0005489658976895C964D935D936D937C9358
:100E00005F97F8018789908DA18DB28DF901E05926
:100E1000FC4F938F828FB58BA48BD80114968C9145
:100E200014978F7714968C934BDB8111BCCFAFCE88
:100E30000F900F900F900F900F90DF91CF911F9117
:100E40000F91FF90EF90BF90AF909F908F907F9009
:100E50006F905F904F9008951F920F920FB60F9270
:100E600011242F933F938F939F93AF93BF938091C0
:100E7000730590917405A0917505B0917605309138
:100E8000720523E0230F2D3720F40196A11DB11D1B
:100E900005C026E8230F0296A11DB11D20937205FF
:100EA0008093730590937405A0937505B0937605B0
:100EB0008091770590917805A0917905B0917A0598
:100EC0000196A11DB11D8093770590937805A0939D
:100ED0007905B0937A05BF91AF919F918F913F9122
:100EE0002F910F900FBE0F901F9018951F920F9289
:100EF0000FB60F9211240F900FBE0F901F901895F0
:100F0000CF93DF93EC0189EE95E008D2892B21F095
:100F100089EE95E0E1D1F7CFBE0189EE95E0ABD344
:100F20006FEF89EE95E039D26FEF89EE95E035D21B
:100F30006FEF89EE95E0DF91CF912FC280917B001A
:100F4000877F80937B0080E480937C0080917A008F
:100F5000806480937A0080917A0086FDFCCFA09116
:100F6000780080917900B0E0B82B22EC31E00E944B
:100F7000EB112FEF33E040E050E00E949611DA01D0
:100F8000C90130936703209366034AE065E875E082
:100F90000E94631180916603909167038956914086
:100FA0008A359105B8F468EC70E080E090E084D474
:100FB00050D565E875E0072E000C880B990B7ED59F
:100FC00060E078EF8FEF9FEFC4D560E078EF8FEFB0
:100FD0009FEF16C068EC70E080E090E06DD439D5EA
:100FE00065E875E0072E000C880B990B67D560E06B
:100FF00074E080E090E0ADD560E074E080E090E0E7
:101000000BC6CF93DF93EC0182E392E08DD464E4CE
:1010100072E086E896E02FD3BE01DD0F880B990BB6
:101020009FD68CDF69E170E080E090E045D460E01D
:101030008AE0C6D369E170E080E090E03DD460E0F2
:101040008BE0DF91CF91BCC3CF93DF93EC0189E4B8
:1010500092E06AD464E472E086E896E00CD3BE01C4
:10106000DD0F880B990B7CD669DF69E170E080E0C9
:1010700090E022D460E08AE0A3D369E170E080E0F0
:1010800090E01AD461E08BE0DF91CF9199C3CF93C8
:10109000DF93EC018CE592E047D464E472E086E8EB
:1010A00096E0E9D2BE01DD0F880B990B59D646DFD9
:1010B00069E170E080E090E0FFD360E08AE080D3F7
:1010C00069E170E080E090E0F7D360E08BE0DF91D1
:1010D000CF9176C3CF93DF93EC018FE692E024D4D7
:1010E00064E472E086E896E0C6D2BE01DD0F880BAC
:1010F000990B36D623DF69E170E080E090E0DCD325
:1011000061E08AE05DD369E170E080E090E0D4D3F3
:1011100060E08BE0DF91CF9153C3CF93DF93EC017D
:1011200083E892E001D464E472E086E896E0A3D21A
:10113000BE01DD0F880B990B13D600DF69E170E06B
:1011400080E090E0B9D360E088E03AD369E170E0F4
:1011500080E090E0B1D360E089E0DF91CF9130C3CF
:10116000CF93DF93EC0187E992E0DED364E472E091
:1011700086E896E080D2BE01DD0F880B990BF0D592
:10118000DDDE69E170E080E090E096D360E088E029
:1011900017D369E170E080E090E08ED361E089E0F0
:1011A000DF91CF910DC3CF93DF93EC018CEA92E0F6
:1011B000BBD364E472E086E896E05DD2BE01DD0F49
:1011C000880B990BCDD569E170E080E090E074D395
:1011D00060E088E0F5D269E170E080E090E06CD3F7
:1011E00060E089E0EDD2DF91CF91A8CECF93DF937D
:1011F000EC018EEB92E098D364E472E086E896E02E
:101200003AD2BE01DD0F880B990BAAD597DE69E1B2
:1012100070E080E090E050D361E088E0D1D269E1F5
:1012200070E080E090E048D360E089E0DF91CF910A
:10123000C7C2CF92DF92EF92FF920F931F93CF938B
:10124000DF936C017A018B01C0E0D0E0CE15DF05A1
:1012500089F0D8016D918D01D601ED91FC9101903D
:10126000F081E02DC6011995892B11F47E0102C091
:101270002196ECCFC701DF91CF911F910F91FF9085
:10128000EF90DF90CF900895FC01A089B1898C91F7
:10129000A689B78982FD0FC09C91818D8F5F8F7366
:1012A000228D821749F0218DDF01A20FB11D5D96BD
:1012B0009C93818F08958C910895FC01538D448DEA
:1012C000252F30E0842F90E0821B930B541710F0F1
:1012D000CF96089501970895FC01918D828D9817FE
:1012E00061F0828DDF01A80FB11D5D968C91928D0A
:1012F0009F5F9F73928F90E008958FEF9FEF089507
:10130000FC01918D828D981731F0828DE80FF11DCF
:10131000858D90E008958FEF9FEF0895FC01918DEA
:10132000228D892F90E0805C9F4F821B91098F73E3
:101330009927089589EE95E0F1DF21E0892B09F4E2
:1013400020E0822F089586E896E0E8DF21E0892BEF
:1013500009F420E0822F0895FC01848DDF01A80F9D
:10136000B11DA35ABF4F2C91848D90E001968F73CD
:101370009927848FA689B7892C93A089B1898C91EC
:1013800080648C93938D848D981306C00288F389B2
:10139000E02D80818F7D80830895EF92FF920F93DF
:1013A0001F93CF93DF93EC0181E0888F9B8D8C8D11
:1013B000981305C0E889F989808185FD23C0F62E40
:1013C0000B8D10E00F5F1F4F0F731127E02E8C8DD8
:1013D000E8120BC00FB607FCFACFE889F9898081C3
:1013E00085FFF5CFCE01B8DFF2CF8B8DFE01E80F80
:1013F000F11DE35AFF4FF0820B8FEA89FB89808150
:10140000806207C0EE89FF896083E889F98980815D
:101410008064808381E090E0DF91CF911F910F91F4
:10142000FF90EF900895CF93DF93EC01888D882390
:10143000C1F0EA89FB89808185FD05C0A889B98949
:101440008C9186FD0EC00FB607FCF5CF808185FF1D
:10145000F2CFA889B9898C9185FFEDCFCE017CDFD1
:10146000E8CFDF91CF91089580E090E0892B19F0CB
:101470006ADF811120C080E090E0892B41F080E09C
:1014800090E0892B21F00E940000811117C080E0BC
:1014900090E0892B19F04EDF811113C080E090E0BD
:1014A000892BA1F080E090E0892B81F00E94000060
:1014B00081110AC008950E940000DDCF0E94000043
:1014C000E6CF0E940000EACF0C94000008953FB7D9
:1014D000F8948091770590917805A0917905B09165
:1014E0007A0526B5A89B05C02F3F19F00196A11DCE
:1014F000B11D3FBFBA2FA92F982F8827820F911DAA
:10150000A11DB11DBC01CD0142E0660F771F881FF0
:10151000991F4A95D1F708950E9402140F931F93C3
:10152000CF93DF93EC0188819981009729F02A817C
:101530003B812617370788F48B016F5F7F4F0E942E
:101540001E13009761F0998388831B830A832C8183
:101550003D81232B11F4FC01108281E001C080E069
:10156000DF91CF911F910F910895EF92FF920F930A
:101570001F93CF93DF936115710511F480E022C0B2
:10158000FB0101900020E9F73197E61BF70BDC0126
:1015900014960D911C911597309799F07B01EC01F1
:1015A0000E0F1F1FB801BADF882341F3288139814C
:1015B0008C819D81B701820F931F0E940F141D83A0
:1015C0000C8381E0DF91CF911F910F91FF90EF90FD
:1015D0000895EF92FF920F931F93CF93DF93EC0147
:1015E0007B018A01BA019ADF2881398181110CC0FF
:1015F0002115310511F0C90189D7198218821D8280
:101600001C821B821A8206C01D830C83B701C9018C
:101610000E940F14CE01DF91CF911F910F91FF9087
:10162000EF900895FC0111821082138212821582BC
:1016300014826115710549F0FB0101900020E9F762
:101640003197AF01461B570BC4CF08956115710543
:1016500079F0FB0101900020E9F73197AF01461BBB
:10166000570BDC01ED91FC910280F381E02D199480
:1016700080E090E00895EACF1F920F920FB60F928C
:1016800011240BB60F922F933F934F935F936F9359
:101690007F938F939F93AF93BF93EF93FF9389EEC5
:1016A00095E05ADEFF91EF91BF91AF919F918F919D
:1016B0007F916F915F914F913F912F910F900BBE52
:1016C0000F900FBE0F901F9018951F920F920FB69C
:1016D0000F9211240BB60F922F933F934F935F936A
:1016E0006F937F938F939F93AF93BF93EF93FF93EA
:1016F00089EE95E0C9DDFF91EF91BF91AF919F9188
:101700008F917F916F915F914F913F912F910F90AA
:101710000BBE0F900FBE0F901F9018951F920F9247
:101720000FB60F9211240BB60F922F933F934F9346
:101730005F936F937F938F939F93AF93BF93EF9339
:10174000FF9386E896E008DEFF91EF91BF91AF919D
:101750009F918F917F916F915F914F913F912F91C9
:101760000F900BBE0F900FBE0F901F9018951F92F9
:101770000F920FB60F9211240BB60F922F933F9337
:101780004F935F936F937F938F939F93AF93BF9389
:10179000EF93FF9386E896E077DDFF91EF91BF919D
:1017A000AF919F918F917F916F915F914F913F91F9
:1017B0002F910F900BBE0F900FBE0F901F9018959A
:1017C000362F90E0FC01E85FFE4F4491FC01E853A6
:1017D000FE4F2491FC01EE57FE4F9491992309F49A
:1017E0006AC0442309F454C050E0FA013197E23151
:1017F000F10508F04DC08827EE58FF4F8F4FE3C525
:10180000809180008F7707C0809180008F7D03C01A
:1018100080918000877F809380003AC084B58F7765
:1018200002C084B58F7D84BD33C08091B0008F77B6
:1018300003C08091B0008F7D8093B00029C080915B
:1018400090008F7707C0809190008F7D03C08091BA
:101850009000877F809390001BC08091A0008F77BD
:1018600007C08091A0008F7D03C08091A000877F7A
:101870008093A0000DC0809120018F7707C08091D8
:1018800020018F7D03C080912001877F80932001FC
:10189000E92FF0E0EE0FFF1FE25BFE4FA591B49140
:1018A0008FB7F894EC91311103C020952E2301C01D
:1018B0002E2B2C938FBF08958F929F92AF92BF9241
:1018C000CF92DF92EF92FF926B017C0100DE4B0121
:1018D0005C01C114D104E104F104E9F0F8DDDC019C
:1018E000CB0188199909AA09BB09883E9340A10533
:1018F000B10578F321E0C21AD108E108F10888EEB9
:10190000880E83E0981EA11CB11CC114D104E1040F
:10191000F10421F7DECFFF90EF90DF90CF90BF90E2
:10192000AF909F908F900895CF93DF93BC0186E88E
:1019300096E08CDEEC016FE073E086E896E086DEF0
:101940008C0F9D1FDF91CF9108958F929F92AF9240
:10195000BF92EF92FF920F931F93CF93DF9300D02C
:101960001F92CDB7DEB719821A821B821C8284E6D1
:1019700090E0A0E0B0E08093ED059093EE05A09399
:10198000EF05B093F0058E010F5F1F4F7E0185E0DC
:10199000E80EF11C0E946A016093F1057093F20554
:1019A0008093F3059093F405E091E905F091EA0541
:1019B0000284F385E02D89EE95E0199597FD0AC024
:1019C000F80181938F01EE15FF0521F789818130A0
:1019D00069F51EC00E946A018090F1059090F205A1
:1019E000A090F305B090F405DC01CB0188199909AA
:1019F000AA09BB098090ED059090EE05A090EF0537
:101A0000B090F00588159905AA05BB0568F2DECFF0
:101A10008A818F3F59F48B818F3F41F48C818F3FB6
:101A200029F482E193E080DF81E004C08CE293E05E
:101A30007BDF80E00F900F900F900F90DF91CF91A0
:101A40001F910F91FF90EF90BF90AF909F908F905C
:101A500008951F93CF93DF9300D000D0CDB7DEB7AA
:101A600061E173E0CE010196DDDD60912B0770919D
:101A70002C07CE01019679DD67E473E0CE01019673
:101A800074DD65E875E0CE0101966FDD6CE473E00E
:101A9000CE0101966ADD89819A8132DA56DF182FEC
:101AA00089819A8133D5812F26960FB6F894DEBFAF
:101AB0000FBECDBFDF91CF911F910895CF92DF92DE
:101AC000EF92FF920F931F93CF93DF93CDB7DEB7C3
:101AD00060970FB6F894DEBF0FBECDBF6B017C01DF
:101AE0008E010F5F1F4F8AE0F80111928A95E9F786
:101AF00061E173E0CE010B9695DD4AE0B801C601C5
:101B0000ECD36091270770912807CE010B962DDD4D
:101B10006EE473E0CE010B9628DDB801CE010B9682
:101B200024DD8B859C85ECD910DF182F8B859C8557
:101B3000EDD4812F60960FB6F894DEBF0FBECDBFF7
:101B4000DF91CF911F910F91FF90EF90DF90CF9099
:101B50000895CF92DF92EF92FF920F931F93CF934E
:101B6000DF93CDB7DEB760970FB6F894DEBF0FBE38
:101B7000CDBF6B017C018E010F5F1F4F8AE0F80122
:101B800011928A95E9F761E173E0CE010B964ADD87
:101B90004AE0B801C601A1D389E2E82E87E0F82E19
:101BA000F70162817381CE010B96DFDC64E573E09F
:101BB000CE010B96DADCB801CE010B96D6DC8B8514
:101BC0009C859ED940E050E061E173E0CE010B9628
:101BD00000DD6AE573E0CE010B96C7DCF701628198
:101BE0007381CE010B96C1DC8B859C8589D9ADDED6
:101BF000182F8B859C858AD4812F60960FB6F89418
:101C0000DEBF0FBECDBFDF91CF911F910F91FF902F
:101C1000EF90DF90CF900895CF92DF92EF92FF92F6
:101C20000F931F93CF93DF93CDB7DEB760970FB6B7
:101C3000F894DEBF0FBECDBF6B017C018E010F5F3C
:101C40001F4F8AE0F80111928A95E9F761E173E08C
:101C5000CE010B96E7DC4AE0B801C6013ED385E22F
:101C6000E82E87E0F82EF70162817381CE010B9692
:101C70007CDC6FE573E0CE010B9677DCB801CE011A
:101C80000B9673DC8B859C853BD940E050E061E18D
:101C900073E0CE010B969DDC6AE573E0CE010B96F6
:101CA00064DCF70162817381CE010B965EDC8B856B
:101CB0009C8526D94ADE182F8B859C8527D4812FB9
:101CC00060960FB6F894DEBF0FBECDBFDF91CF9107
:101CD0001F910F91FF90EF90DF90CF9008958F921A
:101CE0009F92AF92BF920F931F93CF93DF93CDB785
:101CF000DEB7A1970FB6F894DEBF0FBECDBF19A215
:101D0000423008F44AE08E010F5D1F4F842E912C63
:101D1000A12CB12CA501940125D3E62FB901CA014C
:101D200001501109EA3014F4E05D01C0E95CD8010A
:101D3000EC93232B242B252B69F7B80186E896E03A
:101D400085DCA1960FB6F894DEBF0FBECDBFDF9144
:101D5000CF911F910F91BF90AF909F908F9008955A
:101D6000CF93DF934AE0BBDFEC016FE073E086E8DE
:101D700096E06CDC8C0F9D1FDF91CF910895FC01E4
:101D8000A089B18982E08C93A485B5851C92A68533
:101D9000B7858FEC8C93108EA489B58986E08C93DF
:101DA000A289B3898C9180618C93A289B3898C912B
:101DB00088608C93A289B3898C9180688C93028807
:101DC000F389E02D80818F7D80830895789484B598
:101DD000826084BD84B5816084BD85B5826085BD27
:101DE00085B5816085BD80916E00816080936E00B5
:101DF00010928100809181008260809381008091A7
:101E00008100816080938100809180008160809357
:101E100080008091B10084608093B1008091B00017
:101E200081608093B00080919100826080939100E6
:101E300080919100816080939100809190008160F9
:101E4000809390008091A10082608093A100809196
:101E5000A10081608093A1008091A00081608093A7
:101E6000A000809121018260809321018091210155
:101E70008160809321018091200181608093200105
:101E800080917A00846080937A0080917A008260E9
:101E900080937A0080917A00816080937A008091AB
:101EA0007A00806880937A001092C100C8E0D0E088
:101EB0008C2FFE01E853FE4F9491FE01EE57FE4F2A
:101EC0002491222399F030E0220F331FF901E859C1
:101ED000FE4FA591B491F901E25BFE4F259134913B
:101EE0002FB7F894EC91E92BEC932FBF60E068DCFE
:101EF0002196CC30D105E1F686E896E040DF89EE08
:101F000095E03DDF81E193E00E94800781ED92E062
:101F10000E9480071ADD89ED92E00E94800715DD9E
:101F200081E497E027E438E030934A07209349079B
:101F300090934C0780934B072AE638E0309346078E
:101F400020934507909348078093470785E397E0E0
:101F500021E038E030933E0720933D0790934007FF
:101F600080933F0724E238E030933A072093390703
:101F700090933C0780933B0789E597E023ED38E099
:101F800030936207209361079093640780936307FF
:101F900026EF38E030935E0720935D07909360074B
:101FA00080935F078DE497E02DE838E03093560783
:101FB00020935507909358078093570720EB38E0FC
:101FC00030935207209351079093540780935307FF
:101FD0000E949E0780EE92E0A7DC89EE95E09ED9F4
:101FE000181619060CF041C06AE070E080E090E03D
:101FF00063DC89EE95E070D9C82F853671F789EEDC
:1020000095E08CD906974CF3C0937B05CCE7D5E0DF
:1020100089EE95E061D9899385E0C238D807C1F788
:102020001092820580917F058F3FB9F680918005DF
:102030008F3F99F6809181058F3F79F6C0907E059C
:10204000D12CE12CF12C80917D0590917C05E4E070
:10205000F2E0C191D191209709F4BFCF28812913D3
:10206000F8CF29812813F5CF02C0FED9B6CF64EF8F
:1020700072E086E896E0FFDA4AE0BE010D2E000C21
:10208000880B990B2CDE66EF72E086E896E0F3DAB7
:10209000688170E080E090E04AE021DE68EF72E065
:1020A00086E896E0E8DA698170E080E090E04AE056
:1020B00016DE68EF72E086E896E0DDDA6A817B8101
:1020C0006115710511F46BEE72E086E896E0D3DAE3
:1020D00082EF92E029DC81E0C816D104E104F1042A
:1020E00041F4EC81FD81309709F477CF8E819F8197
:1020F0000CC0CD28CE28CF2809F06FCFE885F98510
:10210000309709F46ACF8A859B85199566CFE9EEE9
:10211000F5E01382128248EE53E060E070E0448301
:1021200055836683778388E192E09183808325EDF0
:1021300030E03587248724ED30E03787268720ED8F
:1021400030E0318B208B21ED30E0338B228B22ED80
:1021500030E0358B248B26ED30E0378B268B118ECB
:10216000128E138E148EE6E8F6E0138212824483F8
:102170005583668377839183808385EC90E0958790
:10218000848784EC90E09787868780EC90E0918B41
:10219000808B81EC90E0938B828B82EC90E0958B2E
:1021A000848B86EC90E0978B868B118E128E138E2B
:1021B000148EE3E2F7E080E580831182E5E6F7E044
:1021C000158216821186138682E090E0A0E0B0E0CE
:1021D00084879587A687B78713A215A614A68AE2D7
:1021E00092E093A782A717A6E9E5F7E0108281E0C5
:1021F00081832AEF32E03383228315821482118691
:1022000010861386128617821682EDE4F7E010829C
:1022100093E091832DEF32E0338322831582148281
:10222000118610861386128617821682E1E4F7E083
:10223000108294E0918320E033E03383228315827F
:102240001482118610861386128617821682E5E3A1
:10225000F7E0108295E0918323E033E0338322831B
:1022600015821482118610861386128617821682B2
:10227000E9E2F7E0108299E0918326E033E03383CE
:102280002283158214821186108613861286178285
:102290001682EEEAF7E0108298E0918329E033E0BD
:1022A0003383228315821482118610861386128648
:1022B00017821682E5E2F7E0808381838CE093E069
:1022C000938382830895BB274A3031F4992322F403
:1022D000BDE2909581959F4F01C0BB27FB0155271B
:1022E000AA27880F991FAA1FA41710F0A41B839573
:1022F0005051B9F7A05DAA3308F0A95DA1930097EA
:1023000079F7B111B1931192CB0100C0DC01FC014E
:10231000672F71917723E1F7329704C07C916D9319
:1023200070836291AE17BF07C8F30895052E97FB1F
:1023300016F400940FD057FD05D014D007FC02D03E
:1023400046F408C050954095309521953F4F4F4F2A
:102350005F4F089590958095709561957F4F8F4F51
:102360009F4F0895A1E21A2EAA1BBB1BFD010DC0B1
:10237000AA1FBB1FEE1FFF1FA217B307E407F50735
:1023800020F0A21BB30BE40BF50B661F771F881F11
:10239000991F1A9469F760957095809590959B01A7
:1023A000AC01BD01CF010895A29FB001B39FC00150
:1023B000A39F700D811D1124911DB29F700D811D71
:1023C0001124911D0895EE0FFF1F881F8BBF0790EA
:1023D000F691E02D1994E8DFB7FF0895821B930B67
:1023E0000895CF93DF938230910510F482E090E05E
:1023F000E091BC07F091BD0720E030E0C0E0D0E004
:10240000309711F14081518148175907C0F04817A2
:10241000590761F482819381209719F09B838A8305
:102420002BC09093BD078093BC0726C021153105B2
:1024300019F04217530718F49A01BE01DF01EF01AA
:102440000280F381E02DDCCF2115310509F1281B35
:10245000390B2430310590F412968D919C9113978D
:102460006115710521F0FB019383828304C0909371
:10247000BD078093BC07FD01329644C0FD01E20F09
:10248000F31F81939193225031092D933C933AC0CD
:102490002091BA073091BB07232B41F42091100201
:1024A000309111023093BB072093BA0720910E029E
:1024B00030910F022115310541F42DB73EB74091FF
:1024C000120250911302241B350BE091BA07F091D0
:1024D000BB07E217F307A0F42E1B3F0B28173907A1
:1024E00078F0AC014E5F5F4F2417350748F04E0F70
:1024F0005F1F5093BB074093BA078193919302C02B
:10250000E0E0F0E0CF01DF91CF9108950F931F93AA
:10251000CF93DF93009709F48CC0FC0132971382AC
:1025200012820091BC071091BD070115110581F4BD
:1025300020813181820F931F2091BA073091BB0710
:102540002817390779F5F093BB07E093BA0771C0F4
:10255000D80140E050E0AE17BF0750F412962D911D
:102560003C911397AD012115310509F1D901F3CF44
:102570009D01DA013383228360817181860F971F69
:102580008217930769F4EC0128813981260F371FE0
:102590002E5F3F4F318320838A819B819383828387
:1025A000452B29F4F093BD07E093BC0742C0139676
:1025B000FC93EE931297ED01499159919E01240FDE
:1025C000351FE217F30771F480819181840F951F05
:1025D000029611969C938E938281938113969C937D
:1025E0008E931297E0E0F0E0D80112968D919C91C5
:1025F0001397009719F0F8018C01F6CF8D919C91FB
:1026000098012E5F3F4F820F931F2091BA073091A0
:10261000BB072817390769F4309729F41092BD07D2
:102620001092BC0702C0138212821093BB07009362
:10263000BA07DF91CF911F910F9108956F927F920A
:102640008F929F92AF92BF92CF92DF92EF92FF92C2
:102650000F931F93CF93DF93EC01009781F4CB018D
:10266000DF91CF911F910F91FF90EF90DF90CF906E
:10267000BF90AF909F908F907F906F90B2CEFC01F3
:10268000E60FF71F9C0122503109E217F30708F407
:10269000A8C0D9010D911C91119706171707A8F032
:1026A0000530110508F49BC0C801049786179707E9
:1026B00008F495C002501109061B170B01931193E2
:1026C0006D937C93CF0122DF8AC05B01A01AB10A0F
:1026D0004C01800E911EA091BC07B091BD0740E057
:1026E00050E0E12CF12C109709F44AC0A815B90567
:1026F000D1F56D907C901197630182E0C80ED11CDA
:10270000CA14DB0480F1A3014A195B096A0182E063
:10271000C80ED11C1296BC9012971396AC91B5E0DE
:10272000CB16D10440F0B282A38351834083D901F8
:102730006D937C930AC00E5F1F4FC301800F911FE2
:10274000F90191838083EB2DFA2FE114F10431F02C
:10275000D7011396FC93EE93129741C0F093BD07F7
:10276000E093BC073CC08D919C9111974817590785
:1027700008F4AC017D0112960D90BC91A02DB3CF51
:102780008091BA079091BB0788159905E1F4461727
:102790005707C8F480910E0290910F02009741F400
:1027A0008DB79EB74091120250911302841B950B76
:1027B000E817F907B0F4F093BB07E093BA07F90103
:1027C000718360830CC0CB010CDE7C01009749F063
:1027D000A801BE011BD0CE0199DEC70104C0CE0105
:1027E00002C080E090E0DF91CF911F910F91FF90A8
:1027F000EF90DF90CF90BF90AF909F908F907F90A1
:102800006F90089581E090E0F89410C0FB01DC0126
:1028100002C001900D9241505040D8F70895FB013D
:10282000DC0101900D920020E1F70895F894FFCFAC
:10283000FFFFFFFF4107350759074D070000000064
:10284000BE07800000000000CD0919095D09130AC8
:102850008E096C0980090000000055051909440122
:10286000430142544E5F4357506F7043616C6C623A
:1028700061636B007074723D0042544E5F43575069
:1028800075736843616C6C6261636B0042544E5FA8
:10289000434357506F7043616C6C6261636B0042DD
:1028A000544E5F4343575075736843616C6C62616B
:1028B000636B0042544E5F444F574E506F704361FC
:1028C0006C6C6261636B0042544E5F444F574E50D4
:1028D00075736843616C6C6261636B0042544E5F58
:1028E0005550506F7043616C6C6261636B00425471
:1028F0004E5F55505075736843616C6C6261636BD9
:1029000000626B636D643D3100706167652030006B
:10291000736574757020646F6E6500286E756C6CDD
:1029200029005D005B003A002C006230006231003B
:102930006232006233007433007432007A30000D6A
:102940000A0072656376526574436F6D6D616E64E3
:1029500046696E6973686564206F6B0072656376A3
:10296000526574436F6D6D616E6446696E6973681C
:10297000656420657272002E7478743D22002E7694
:10298000616C3D002E70636F3D0072656620002E05
:0629900062636F3D0000D0
:020000023000CC
:10E000000D9489F10D94B2F10D94B2F10D94B2F129
:10E010000D94B2F10D94B2F10D94B2F10D94B2F1F0
:10E020000D94B2F10D94B2F10D94B2F10D94B2F1E0
:10E030000D94B2F10D94B2F10D94B2F10D94B2F1D0
:10E040000D94B2F10D94B2F10D94B2F10D94B2F1C0
:10E050000D94B2F10D94B2F10D94B2F10D94B2F1B0
:10E060000D94B2F10D94B2F10D94B2F10D94B2F1A0
:10E070000D94B2F10D94B2F10D94B2F10D94B2F190
:10E080000D94B2F10D94B2F10D94B2F10D94B2F180
:10E090000D94B2F10D94B2F10D94B2F10D94B2F170
:10E0A0000D94B2F10D94B2F10D94B2F10D94B2F160
:10E0B0000D94B2F10D94B2F10D94B2F10D94B2F150
:10E0C0000D94B2F10D94B2F10D94B2F10D94B2F140
:10E0D0000D94B2F10D94B2F10D94B2F10D94B2F130
:10E0E0000D94B2F141546D656761323536300041AF
:10E0F000726475696E6F206578706C6F72657220DE
:10E1000073746B3530305632206279204D4C530099
:10E11000426F6F746C6F616465723E004875683F52
:10E1200000436F6D70696C6564206F6E203D200048
:10E130004350552054797065202020203D20005FF9
:10E140005F4156525F415243485F5F3D2000415658
:10E1500052204C696243205665723D20004743437C
:10E160002056657273696F6E203D20004350552024
:10E1700049442020202020203D20004C6F7720663D
:10E18000757365202020203D20004869676820665F
:10E190007573652020203D200045787420667573D6
:10E1A00065202020203D20004C6F636B2066757336
:10E1B000652020203D20004D617220203720323024
:10E1C000313300312E362E3800342E332E350056A2
:10E1D00023202020414444522020206F7020636F70
:10E1E00064652020202020696E73747275637469E1
:10E1F0006F6E2061646472202020496E74657272B3
:10E20000757074006E6F20766563746F7200726A49
:10E210006D702020006A6D70200057686174207056
:10E220006F72743A00506F7274206E6F7420737541
:10E2300070706F72746564004D7573742062652030
:10E2400061206C6574746572002000577269747483
:10E25000696E672045450052656164696E672045B7
:10E26000450045452065727220636E743D00504F35
:10E27000525400303D5A65726F2061646472003FF1
:10E280003D43505520737461747300403D454550C3
:10E29000524F4D207465737400423D426C696E6B41
:10E2A000204C454400453D44756D70204545505215
:10E2B0004F4D00463D44756D7020464C415348001B
:10E2C000483D48656C70004C3D4C69737420492F83
:10E2D0004F20506F72747300513D51756974005234
:10E2E0003D44756D702052414D00563D73686F7707
:10E2F00020696E7465727275707420566563746FF0
:10E30000727300593D506F727420626C696E6B00BD
:10E310002A0011241FBECFEFD1E2DEBFCDBF01E046
:10E320000CBF12E0A0E0B2E0EEE1FDEF03E00BBFB6
:10E3300002C007900D92A030B107D9F712E0A0E01B
:10E34000B2E001C01D92AE30B107E1F70F9460F367
:10E350000D948DFE01E20EBF0FEF0DBF11241FBE05
:10E360000D9460F30D9400F020E030E040ED57E0B4
:10E3700005C0FA013197F1F72F5F3F4F2817390792
:10E38000C0F308959C01260F311DC901A0E0B0E043
:10E390002F5F3F4FABBFFC018791882361F08093D3
:10E3A000C6008091C00086FFFCCF8091C0008064D1
:10E3B0008093C000EACF08958DE08093C6008091DD
:10E3C000C00086FFFCCF8091C00080648093C000B5
:10E3D0008AE08093C6008091C00086FFFCCF8091C8
:10E3E000C00080648093C00008950F94C2F10F9420
:10E3F000DCF10895FC019081992359F09093C600B7
:10E400008091C00086FFFCCF8091C0008064809323
:10E41000C0003196992379F70895282F982F929567
:10E420009F70892F805D8A3308F0895F8093C600D2
:10E430008091C00086FFFCCF8091C00080648093F3
:10E44000C000822F8F70982F905D9A3308F0995FEB
:10E450009093C6008091C00086FFFCCF8091C000E1
:10E4600080648093C00008959C01FB01853691056E
:10E470001CF46330710594F0C90164E670E00F94F8
:10E480002EFE605D7F4F6093C6008091C00086FFC6
:10E49000FCCF8091C00080648093C0002B30310598
:10E4A00014F43297B4F0C90164E670E00F942EFEC4
:10E4B0006AE070E00F942EFE605D7F4F6093C600AF
:10E4C0008091C00086FFFCCF8091C0008064809363
:10E4D000C000C9016AE070E00F942EFEC0968093E0
:10E4E000C6008091C00086FFFCCF8091C000806490
:10E4F0008093C00008951F93182F8EE692EE60E07F
:10E500000F94C2F11093C6008091C00086FFFCCF2B
:10E510008091C00080648093C0000F94DCF11F9153
:10E5200008952F923F924F925F926F927F928F92B7
:10E530009F92AF92BF92CF92DF92EF92FF920F9392
:10E540001F93DF93CF93CDB7DEB762970FB6F894E2
:10E55000DEBF0FBECDBF382E622ECA01DB015C01CB
:10E560006D01772420E2222E2E010894411C511CBB
:10E570008BC081E0A81680E0B80681E0C80680E084
:10E58000D80628F0C601AA27BB270F940DF2BB2797
:10E59000AD2D9C2D8B2D0F940DF28A2D0F940DF225
:10E5A0002092C6008091C00086FFFCCF8091C00001
:10E5B00080648093C0009DE29093C6008091C0006B
:10E5C00086FFFCCF8091C00080648093C0002092C1
:10E5D000C6008091C00086FFFCCF8091C00080649F
:10E5E0008093C00019828601750188249924A1E0D6
:10E5F0003A1651F03A1620F0B2E03B1661F409C029
:10E600000BBFF701779007C0C7010F9477FE782EF4
:10E6100002C0F7017080872D0F940DF22092C60082
:10E620008091C00086FFFCCF8091C0008064809301
:10E63000C000872D8052F401EF70F0708F3520F408
:10E64000E40DF51D708204C0E40DF51D8EE280839B
:10E650000894E11CF11C011D111D0894811C911CE2
:10E6600090E18916910409F0C2CF80E190E0A0E02A
:10E67000B0E0A80EB91ECA1EDB1E198AC2010F9493
:10E68000FAF10F94DCF16A94662009F072CF629679
:10E690000FB6F894DEBF0FBECDBFCF91DF911F91B3
:10E6A0000F91FF90EF90DF90CF90BF90AF909F9031
:10E6B0008F907F906F905F904F903F902F90089534
:10E6C0002F923F924F925F926F927F928F929F9282
:10E6D000AF92BF92CF92DF92EF92FF920F931F9370
:10E6E000DF93CF93CDB7DEB7CD53D1400FB6F894BB
:10E6F000DEBF0FBECDBF01E20EBF0FEF0DBF94B75F
:10E70000F894A89514BE80916000886180936000A1
:10E7100010926000789493FF05C0E0910002F091A0
:10E7200001021995279A2F9A8091C00082608093E8
:10E73000C00080E18093C40088E18093C1000000A4
:10E74000EE24FF24870144E0A42EB12CCC24DD2448
:10E7500024C0C5010197F1F70894E11CF11C011DCB
:10E76000111D21E2E2162EE4F20620E0020720E06D
:10E77000120718F031E0C32ED12CC801B70127ECE5
:10E780003BE140E050E00F9441FE611571058105C9
:10E79000910519F485B1805885B98091C00087FD35
:10E7A00003C0C114D104A9F2A6014F5F5F4FC25E3E
:10E7B000DE4F59834883CE51D140C25EDE4F8881FF
:10E7C0009981CE51D140019711F00D9410FEC05D9A
:10E7D000DE4F19821882C053D14060E0C15DDE4F28
:10E7E0001882CF52D14088249924C35DDE4F19820C
:10E7F0001882CD52D140C05EDE4F188219821A8233
:10E800001B82C052D140CE5CDE4F188219821A8220
:10E810001B82C253D140EE24FF2487010BBFF701B6
:10E8200007911691C45CDE4F19830883CC53D14005
:10E830000D940BFEC25EDE4F28813981CE51D1404E
:10E840002130310509F52091C600C25EDE4F1982E4
:10E850001882CE51D14022C02F5F3F4F4F4F5F4FA4
:10E86000213082E138078AE7480780E0580780F0C6
:10E87000C45CDE4FE881F981CC53D140EF5FFF4F9C
:10E8800019F0EE27FF27099420E030E040E050E047
:10E890008091C00087FFE0CF2091C600C35DDE4FAE
:10E8A00048815981CD52D1404F5F5F4FC35DDE4FEC
:10E8B00059834883CD52D140213209F063C64A3092
:10E8C000510508F05FC60894811C911C53E0851621
:10E8D000910409F059C600E010E018C081E280936D
:10E8E000C6008091C00086FFFCCF8091C00080648C
:10E8F0008093C0002F5F3F4F2931310579F70F9486
:10E90000DCF10F5F1F4F0530110519F020E030E0FA
:10E91000E5CF10920A0210920B0210920C02109294
:10E920000D02109206021092070210920802109235
:10E930000902109202021092030210920402109235
:10E9400005028FEE90EE60E00F94F5F180E191EE1C
:10E9500060E00F94C2F18091C00087FFFCCF9091DE
:10E96000C600903608F09F759032B8F09093C600BC
:10E970008091C00086FFFCCF8091C00080648093AE
:10E98000C000A0E2A093C6008091C00086FFFCCF2B
:10E990008091C00080648093C000983409F4D7C18E
:10E9A0009934B8F4923409F459C1933458F490333B
:10E9B00019F1903308F4E3C59F33A1F1903409F0C5
:10E9C000DEC5BDC0953409F470C1963409F0D7C5D1
:10E9D00098C1923509F42BC2933538F49C3409F46C
:10E9E000F5C1913509F0CBC518C2963509F445C279
:10E9F000993509F0C4C567C483E792EE62E00F94CD
:10EA0000F5F110920602109207021092080210927D
:10EA1000090210920A0210920B0210920C0210923C
:10EA20000D0213C18FE792EE62E00F94F5F18FEEC5
:10EA300090EE60E00F94F5F181E291EE60E00F94CA
:10EA4000C2F187EB91EE60E00F94F5F180E391EE77
:10EA500060E00F94C2F184EE90EE60E00F94F5F167
:10EA60008FE391EE60E00F94C2F186E090E061E008
:10EA700070E00F9434F20F94DCF18DE591EE60E0DC
:10EA80000F94C2F189EC91EE60E00F94F5F18EE401
:10EA900091EE60E00F94C2F183EC91EE60E00F9490
:10EAA000F5F18CE691EE60E00F94C2F18EE10F94E7
:10EAB0000DF288E90F940DF281E00F940DF20F949E
:10EAC000DCF18BE791EE60E00F94C2F119E0E0E039
:10EAD000F0E010935700E4918E2F0F940DF20F94F5
:10EAE000DCF18AE891EE60E00F94C2F1E3E0F0E03F
:10EAF00010935700E4918E2F0F940DF20F94DCF1D8
:10EB000089E991EE60E00F94C2F1E2E0F0E0109349
:10EB10005700E4918E2F0F940DF20F94DCF188EAE8
:10EB200091EE60E00F94C2F1E1E0F0E01093570045
:10EB30001491812F0F940DF20F94DCF107CF8BE825
:10EB400092EE62E00F94F5F18BE492EE60E00F94A8
:10EB5000F5F10F94DCF100E010E019C0C8016F2D51
:10EB60000F947FFEFF2031F489E492EE60E00F9471
:10EB7000C2F10BC0F092C6008091C00086FFFCCFAE
:10EB80008091C00080648093C0000F5F1F4FC80158
:10EB900081519F41A0E0B0E0ABBFFC01F790BAE229
:10EBA000FB1621F0E2E000301E07C1F60F94DCF105
:10EBB0000F94DCF187E592EE60E00F94F5F10F948D
:10EBC000DCF1CC24DD2400E010E01EC0C8010F946D
:10EBD00077FEF82E882331F489E492EE60E00F94FA
:10EBE000C2F10BC08093C6008091C00086FFFCCFAD
:10EBF0008091C00080648093C000FE1419F00894D6
:10EC0000C11CD11C0F5F1F4FC80181519F41A0E063
:10EC1000B0E0ABBFFC01E790FAE2EF1621F022E092
:10EC20000030120799F60F94DCF10F94DCF182E6C4
:10EC300092EE60E00F94C2F1C60161E070E00F94C3
:10EC400034F20F94DCF10F94DCF110920202109276
:10EC50000302109204021092050278CE89E992EE26
:10EC600062E00F94F5F1279A2F9A16C02F9880E052
:10EC700090E0E0EDF7E03197F1F7019684369105E9
:10EC8000C1F72F9A80E090E0E0EDF7E03197F1F7DF
:10EC9000019684369105C1F78091C00087FFE6CFC9
:10ECA0008091C00087FFFCCF64C485EA92EE62E0E9
:10ECB0000F94F5F140910202509103026091040219
:10ECC0007091050281E020E10F9491F2809102029F
:10ECD00090910302A0910402B091050280509F4FD1
:10ECE000AF4FBF4F8093020290930302A0930402A0
:10ECF000B093050280509041A040B04008F426CE69
:10ED0000A4CF83EB92EE62E00F94F5F140910602FE
:10ED100050910702609108027091090280E020E1A1
:10ED20000F9491F28091060290910702A09108023F
:10ED3000B091090280509F4FAF4FBF4F80930602A2
:10ED400090930702A0930802B0930902FFCD80ECD4
:10ED500092EE62E00F94F5F183E792EE60E00F949B
:10ED6000F5F18FE792EE60E00F94F5F18BE892EE0B
:10ED700060E00F94F5F189E992EE60E00F94F5F10F
:10ED800085EA92EE60E00F94F5F183EB92EE60E09D
:10ED90000F94F5F180EC92EE60E00F94F5F187ECC2
:10EDA00092EE60E00F94F5F188ED92EE60E00F9442
:10EDB000F5F18FED92EE60E00F94F5F18AEE92EEB0
:10EDC00060E00F94F5F183E093EEBDCD87EC92EE19
:10EDD00062E00F94F5F181E40F947BF282E40F94EA
:10EDE0007BF283E40F947BF284E40F947BF285E45E
:10EDF0000F947BF286E40F947BF287E40F947BF20E
:10EE000088E40F947BF28AE40F947BF28BE40F94F6
:10EE10007BF28CE40F947BF299CD88ED92EE62E068
:10EE20000F94F5F1772473948824992409C48FED05
:10EE300092EE62E00F94F5F140910A0250910B02BC
:10EE400060910C0270910D0282E020E10F9491F22A
:10EE500080910A0290910B02A0910C02B0910D02D8
:10EE600080509F4FAF4FBF4F80930A0290930B0289
:10EE7000A0930C02B0930D0269CD8AEE92EE62E08F
:10EE80000F94F5F184EE90EE60E00F94F5F18FECC5
:10EE900091EE60E00F94F5F1662477244301CC5D98
:10EEA000DE4F19821882C452D140D401C301B695F5
:10EEB000A79597958795CA5DDE4F88839983AA8326
:10EEC000BB83C652D140CC5DDE4FA881B981C4520C
:10EED000D1401196CC5DDE4FB983A883C452D14096
:10EEE000CD0162E070E00F9434F2B0E2B093C6005E
:10EEF0008091C00086FFFCCF8091C0008064809329
:10EF0000C000EDE2E093C6008091C00086FFFCCF18
:10EF10008091C00080648093C000F0E2F093C6004E
:10EF20008091C00086FFFCCF8091C00080648093F8
:10EF3000C000CA5DDE4FE880F9800A811B81C6529D
:10EF4000D140BB27A12F902F8F2D0F940DF2CA5DBA
:10EF5000DE4F8881C652D1400F940DF2B0E2FB2EF5
:10EF6000F092C6008091C00086FFFCCF8091C00067
:10EF700080648093C0000DE30093C6008091C000C0
:10EF800086FFFCCF8091C00080648093C00010E2B7
:10EF90001093C6008091C00086FFFCCF8091C00016
:10EFA00080648093C0008BBEF3012791C65DDE4F65
:10EFB0002883CA52D140A22EBB24CC24DD2408943D
:10EFC000611C711C811C911C8BBEF3018791282E42
:10EFD0003324442455240894611C711C811C911C09
:10EFE0008BBEF3013791C55DDE4F3883CB52D140E4
:10EFF0000894611C711C811C911C8BBEF30147910C
:10F00000C45DDE4F4883CC52D140ADEFEA2EAFEF66
:10F01000FA2EAFEF0A2FAFEF1A2F6E0C7F1C801E57
:10F02000911E142D032DF22CEE24EA0CFB1C0C1D5A
:10F030001D1D0F940DF220E22093C6008091C000A8
:10F0400086FFFCCF8091C00080648093C000C65DC5
:10F05000DE4F8881CA52D1400F940DF230E23093D6
:10F06000C6008091C00086FFFCCF8091C000806404
:10F070008093C000C45DDE4F8881CC52D1400F9494
:10F080000DF240E24093C6008091C00086FFFCCFA5
:10F090008091C00080648093C000C55DDE4F888190
:10F0A000CB52D1400F940DF250E25093C6008091A4
:10F0B000C00086FFFCCF8091C00080648093C000B8
:10F0C0008FEFE8168FEFF80680E0080780E018075A
:10F0D00031F484E092EE60E00F94C2F1DFC0D80119
:10F0E000C7018070907CA070B0708050904CA040A0
:10F0F000B040D1F52FEF3FE340E050E0E222F322B1
:10F1000004231523CA5DDE4FA880B980CA80DB8046
:10F11000C652D140AE0CBF1CC01ED11EAA0CBB1CD7
:10F12000CC1CDD1C8EE092EE60E00F94C2F1BB2798
:10F13000A12F902F8F2D0F940DF28E2D0F940DF285
:10F1400030E23093C6008091C00086FFFCCF8091F2
:10F15000C00080648093C0004EE34093C60080915D
:10F16000C00086FFFCCF87C08EE09EEFA0E0B0E03D
:10F17000E822F9220A231B239CE0E91694E9F90608
:10F1800090E0090790E0190709F088C0C45DDE4FE0
:10F19000A881CC52D140EA2EFF2400E010E0102FCD
:10F1A0000F2DFE2CEE24C55DDE4FB881CB52D14031
:10F1B000EB0EF11C011D111DD601C501817090706F
:10F1C000A070B070DC0199278827E80EF91E0A1F8D
:10F1D0001B1F20EF30E040E050E0A222B322C42207
:10F1E000D52241E1AA0CBB1CCC1CDD1C4A95D1F7F1
:10F1F000EA0CFB1C0C1D1D1D81E090E0A0E0B0E0BE
:10F20000282239224A225B2235E1220C331C441C7D
:10F21000551C3A95D1F7E20CF31C041D151D57013E
:10F220006801AA0CBB1CCC1CDD1C85E192EE60E0E1
:10F230000F94C2F1C801AA27BB270F940DF2BB2778
:10F24000A12F902F8F2D0F940DF28E2D0F940DF274
:10F2500090E29093C6008091C00086FFFCCF809121
:10F26000C00080648093C000AEE3A093C60080918C
:10F27000C00086FFFCCF8091C00080648093C000F6
:10F28000C601AA27BB270F940DF2BB27AD2D9C2DDD
:10F290008B2D0F940DF28A2D0F940DF20F94DCF14B
:10F2A000CC5DDE4FE881F981C452D140F99709F471
:10F2B0004DCBF4E0EF2EF12C012D112D6E0C7F1CA7
:10F2C000801E911EF2CD83E093EE62E00F94F5F183
:10F2D0008AE192EE60E00F94C2F18091C00087FF56
:10F2E000FCCF1091C6001F751093C6008091C0001E
:10F2F00086FFFCCF8091C00080648093C0000F9493
:10F30000DCF1812F81548A3108F036C1163409F4BA
:10F3100095C0173490F4133409F44EC0143430F40B
:10F320001134F1F0123409F01DC130C0143409F465
:10F3300059C0153409F016C16BC01A3409F4C4C0A1
:10F340001B3438F4173409F48FC0183409F00AC19B
:10F35000A1C01B3409F4D2C01C3409F003C1E8C0B9
:10F360008FEF81B90DC082B1809582B980E090E0C5
:10F37000E0EDF7E03197F1F70196883C9105C1F790
:10F380008091C00087FFEFCF12B8EFC08FEF84B934
:10F390000DC085B1809585B980E090E0E0EDF7E0A3
:10F3A0003197F1F70196883C9105C1F78091C00033
:10F3B00087FFEFCF15B8D9C08FEF87B90DC088B1DF
:10F3C000809588B980E090E0E0EDF7E03197F1F7C3
:10F3D0000196883C9105C1F78091C00087FFEFCF6F
:10F3E00018B8C3C08FEF8AB90DC08BB180958BB9A7
:10F3F00080E090E0E0EDF7E03197F1F70196883C8E
:10F400009105C1F78091C00087FFEFCF1BB8ADC059
:10F410008FEF8DB90DC08EB180958EB980E090E0F0
:10F42000E0EDF7E03197F1F70196883C9105C1F7DF
:10F430008091C00087FFEFCF1EB897C08FEF80BBD1
:10F440000DC081B3809581BB80E090E0E0EDF7E0F6
:10F450003197F1F70196883C9105C1F78091C00082
:10F4600087FFEFCF11BA81C08FEF83BB0DC084B38C
:10F47000809584BB80E090E0E0EDF7E03197F1F714
:10F480000196883C9105C1F78091C00087FFEFCFBE
:10F4900014BA6BC08FEF809301010FC080910201FD
:10F4A00080958093020180E090E0E0EDF7E03197F5
:10F4B000F1F70196883C9105C1F78091C00087FF64
:10F4C000EDCF1092020151C08FEF809304010FC065
:10F4D0008091050180958093050180E090E0E0ED4A
:10F4E000F7E03197F1F70196883C9105C1F78091DB
:10F4F000C00087FFEDCF1092050137C08FEF8093DA
:10F5000007010FC08091080180958093080180E079
:10F5100090E0E0EDF7E03197F1F70196883C910536
:10F52000C1F78091C00087FFEDCF109208011DC088
:10F530008FEF80930A010FC080910B01809580931B
:10F540000B0180E090E0E0EDF7E03197F1F70196F4
:10F55000883C9105C1F78091C00087FFEDCF1092E4
:10F560000B0103C085E292EEEEC98091C00087FFD7
:10F57000FCCF8091C600EAC988E392EEE4C98CE131
:10F5800091EEE1C988249924933011F1943028F444
:10F59000913089F09230B8F408C0953061F195301F
:10F5A000F0F0963009F048C043C02B3109F042C951
:10F5B00091E06BE13FC96227C15DDE4F2883CF52E6
:10F5C000D14092E037C9B22FA0E0622793E032C960
:10F5D000822F90E0A82BB92B622794E02BC92E3004
:10F5E00009F039C3622795E0C05DDE4F19821882A9
:10F5F000C053D1401FC9E1E0F0E0EC0FFD1FC05D3A
:10F60000DE4F08811981C053D140E00FF11F2083E4
:10F610000F5F1F4FC05DDE4F19830883C053D14079
:10F6200062270A171B0709F005C9D80196E002C92D
:10F63000261709F010C303C0973009F0FBC87724E0
:10F640009981933109F412C19431C8F4963009F4C8
:10F65000D8C0973050F4923009F406C1933009F4C1
:10F660006DC0913009F059C253C0913109F477C08F
:10F67000923108F0BBC0903109F04FC2F5C098310B
:10F6800009F487C0993150F4953109F4EFC09531F0
:10F6900008F4C6C1963109F040C2C2C19A3109F4DA
:10F6A0006CC09A3108F491C09B3109F45BC09D3164
:10F6B00009F033C29D81903359F48F81882311F46E
:10F6C0009EE11CC0813011F091E018C098E916C08D
:10F6D000892F807591F0903539F4E0E0F0E089E011
:10F6E0008093570094910AC0983539F4E3E0F0E034
:10F6F00089E080935700949101C090E01A821B82A8
:10F700008D818C831D829E831F8227E030E009C299
:10F710001A8288E08B8381E48C8386E58D8382E581
:10F720008E8389E48F8383E5888780E589878FE5E9
:10F730008A8782E38B872BE030E0F3C18A818139AD
:10F7400041F0823941F0803911F48FE005C080E04A
:10F7500003C082E001C08AE01A828B8344C0772410
:10F76000739482C08D81882311F48EE12CC0813086
:10F7700011F081E028C088E926C01A82E1E0F0E0BB
:10F7800089E08093570084918B831C8224E030E0D1
:10F79000C8C18B81803589F48C81883039F4E2E0EE
:10F7A000F0E089E08093570084910DC0E0E0F0E044
:10F7B00089E080935700849106C0E3E0F0E089E09F
:10F7C0008093570084911A82DFCF8D81836C99E0FA
:10F7D000E1E0F0E0082E90935700E89507B600FCB2
:10F7E000FDCF1A821B8223E030E09BC180EC8A832C
:10F7F000CE5CDE4F188219821A821B82C253D1401E
:10F800008EC18A8190E0A0E0B0E0582F44273327D2
:10F8100022278B8190E0A0E0B0E0DC0199278827C7
:10F82000282B392B4A2B5B2B8D8190E0A0E0B0E098
:10F83000282B392B4A2B5B2B8C8190E0A0E0B0E089
:10F84000BA2FA92F982F8827282B392B4A2B5B2BCF
:10F85000220F331F441F551FC05EDE4F288339839C
:10F860004A835B83C052D1401A8259C13A81C95C34
:10F87000DE4F3883C753D140CA5CDE4F1882C6536F
:10F88000D1408B81C82EDD24CA5CDE4F488159816E
:10F89000C653D140C42AD52A933109F082C0CE5C28
:10F8A000DE4F88819981AA81BB81C253D1408050AB
:10F8B000904CA340B04030F583E0CE5CDE4FE88052
:10F8C000F9800A811B81C253D140F70100935B008C
:10F8D00080935700E89507B600FCFDCFCE5CDE4F65
:10F8E000088119812A813B81C253D14000501F4FAA
:10F8F0002F4F3F4FCE5CDE4F088319832A833B8313
:10F90000C253D140C05EDE4F488159816A817B81FC
:10F91000C052D140DE011B9631E08C9111962C91A2
:10F9200011971296C75CDE4F2883C953D140C85C3B
:10F93000DE4F1882C853D14090E0C85CDE4FE881AA
:10F94000F981C853D1408E2B9F2B0C01FA01609393
:10F950005B0030935700E89511244E5F5F4F6F4F67
:10F960007F4F0EEFE02E0FEFF02ECE0CDF1CC114F8
:10F97000D10499F685E0C05EDE4F088119812A81A5
:10F980003B81C052D140F80120935B008093570027
:10F99000E89507B600FCFDCF81E180935700E8951C
:10F9A00035C0C05EDE4F88819981AA81BB81C0527B
:10F9B000D140B695A795979587957C018601ABE0D8
:10F9C000AA2EB12CAC0EBD1E0BC0D5016D915D01F0
:10F9D000C7010F947FFE0894E11CF11C01501040F8
:10F9E0000115110591F7A60160E070E0440F551F65
:10F9F000661F771FC05EDE4FE880F9800A811B8199
:10FA0000C052D1404E0D5F1D601F711F1A82C05E33
:10FA1000DE4F488359836A837B83C052D1407FC0C5
:10FA2000FA80C55CDE4FF882CB53D140C65CDE4F16
:10FA30001882CA53D1408B81C82EDD24C65CDE4FAC
:10FA400008811981CA53D140C02AD12A1A828981DA
:10FA5000BE016D5F7F4F843121F59601C05EDE4FA0
:10FA6000E880F9800A811B81C052D1400BBFF701A9
:10FA700087919691DB018C9311969C936E5F7F4FDB
:10FA8000D801C7010296A11DB11DC05EDE4F88835B
:10FA90009983AA83BB83C052D14022503040F1F6F3
:10FAA00036C0C05EDE4F288139814A815B81C052F9
:10FAB000D1400894C108D108760100E010E0089414
:10FAC000C11CD11C0894E11CF11C011D111DE20E8A
:10FAD000F31E041F151F21BDBB27A52F942F832FB5
:10FAE00082BD2F5F3F4F4F4F5F4FF89A80B5DB01CC
:10FAF0008D93BD012E153F054007510761F7C05E8C
:10FB0000DE4F288339834A835B83C052D1409601FC
:10FB10002D5F3F4FFB01108204C080EC8A8322E0FE
:10FB200030E08BE18093C6008091C00086FFFCCF5F
:10FB30008091C00080648093C000C15DDE4FF88179
:10FB4000CF52D140F093C6008091C00086FFFCCF19
:10FB50008091C00080648093C000432F3093C60022
:10FB60008091C00086FFFCCF8091C00080648093AC
:10FB7000C000922F2093C6008091C00086FFFCCF6A
:10FB80008091C00080648093C0008EE08093C600A6
:10FB90008091C00086FFFCCF8091C000806480937C
:10FBA000C00065E1C15DDE4FE880CF52D1406E25D7
:10FBB00069276427FE01319610C090819093C6009A
:10FBC0008091C00086FFFCCF31968091C000806498
:10FBD0008093C0006927215030402115310569F715
:10FBE0006093C6008091C00086FFFCCF8091C0006A
:10FBF00080648093C00085B1805885B9772081F4F6
:10FC0000C15DDE4F0881CF52D1400F5FC15DDE4F35
:10FC10000883CF52D14090E0A0E0B0E00D941AF4F8
:10FC200027982F9880E090E020ED37E0F901319798
:10FC3000F1F7019684369105C9F700008091C00064
:10FC40008D7F8093C00081E180935700E895EE2777
:10FC5000FF270994FFCF90E00D941AF497FB092E2B
:10FC600007260AD077FD04D02ED006D000201AF443
:10FC7000709561957F4F0895F6F7909581959F4F08
:10FC80000895A1E21A2EAA1BBB1BFD010DC0AA1FDD
:10FC9000BB1FEE1FFF1FA217B307E407F50720F0F5
:10FCA000A21BB30BE40BF50B661F771F881F991F70
:10FCB0001A9469F760957095809590959B01AC01B9
:10FCC000BD01CF010895AA1BBB1B51E107C0AA1FAC
:10FCD000BB1FA617B70710F0A61BB70B881F991FED
:10FCE0005A95A9F780959095BC01CD010895F99991
:10FCF000FECF92BD81BDF89A992780B50895262F31
:10FD0000F999FECF1FBA92BD81BD20BD0FB6F89400
:0EFD1000FA9AF99A0FBE01960895F894FFCF63
:040000033000E000E9
:00000001FF
