:1000000007C1000036C1000034C1000032C1000049
:1000100030C100002EC100002CC100002AC1000028
:1000200028C1000063C7000061C700005FC700006F
:1000300020C100001EC100001CC100001AC1000048
:1000400018C1000016C1000014C1000012C1000058
:1000500010C100000EC100000CC10000FDC6000070
:1000600008C100000C94B70B0C948E0B02C1000069
:1000700000C10000FEC00000FCC00000FAC000008B
:10008000F8C00000F6C00000F4C00000F2C000009C
:10009000F0C00000EEC00000ECC00000EAC00000AC
:1000A000E8C00000E6C00000E4C00000E2C00000BC
:1000B000E0C00000DEC00000DCC00000DAC00000CC
:1000C000D8C00000D6C00000D4C000000C94650B5E
:1000D0000C943C0BCEC00000CCC00000CAC0000095
:1000E000C8C000000E0C110C000C040C080C480CCD
:1000F000150C190C1F0C230C270C2D0C310C350C76
:10010000480C3B0C3F0C430C00000A0B02090C0D81
:100110000E080703040100000000000000000000BA
:1001200000000000000000000000000000000000CF
:10013000000000001211100000000000000000008C
:1001400000000000000000000000000000000000AF
:100150002200250028002B002E003100340002016F
:100160000000050108010B01000021002400270008
:100170002A002D00300033000101000004010701B6
:100180000A0105050505070508080808020202021C
:100190000A0A080804040404010101010101010123
:1001A0000303030303030303040707070C0C0C0CEE
:1001B0000C0C0C0C020202020606060606060606D7
:1001C0000B0B0B0B0B0B0B0B010210202008081064
:1001D00020401020408002010201080402010102B7
:1001E0000408102040808040201008040201800490
:1001F00002018040201008040201080402010102EB
:10020000040810204080010204081020408087105C
:1002100011241FBECFEFD1E2DEBFCDBF00E00CBF87
:1002200013E0A0E0B2E0E0E3F8E200E00BBF02C0C0
:1002300007900D92A636B107D9F727E0A6E6B3E0FE
:1002400001C01D92AE3BB207E1F711E0C8E0D1E07A
:1002500000E006C021970109802FFE010E94E311F2
:10026000C730D10780E00807A9F70E94E60E0C947A
:100270001614C6CE8EBD00000DB407FEFDCF8EB5A0
:1002800008958FEFF7CF089580E090E0089561E042
:10029000FC0184810E94E00B80916803811110921F
:1002A00068030895CF93DF93EC018E81882379F062
:1002B0008F8198859C012F5F3F4F38872F83823035
:1002C000924010F4DEDFF4CFCE01E1DF1E82DF9139
:1002D000CF9108952FB7F8946091730570917405CC
:1002E00080917505909176052FBF08950F931F9308
:1002F000CF93DF93EB01EEDF8B01C3DF8F3F41F044
:10030000E9DF601B710B6C177D07B8F380E001C05B
:1003100081E0DF91CF911F910F910895CF92DF92ED
:10032000FF920F931F93CF93DF9300D01F92CDB70F
:10033000DEB76C01F62E29833A834B835C83B2DFF0
:100340008091680329813A814B815C81811109C0C8
:1003500081E08093680390912307809124079CBDDE
:100360008DBD60E0F601848129833A834B835C83F1
:100370000E94E00B6CE271E0C601B8DF8F2D806453
:1003800079DF08E110E05C814B813A812981DA0153
:10039000C901002E04C0B695A795979587950A9434
:1003A000D2F729833A834B835C8364DF08501109B9
:1003B00029813A814B815C81083FFFEF1F0739F7A4
:1003C000FF2029F088E0F81204C087E803C085E91F
:1003D00001C08FEF4FDF10E054DFF601828787FF07
:1003E00004C01F3F11F01F5FF7CF0F900F900F90C9
:1003F0000F90DF91CF911F910F91FF90DF90CF90E1
:100400000895EF92FF920F931F93CF93DF93EC0128
:100410007901411551056105710511F482E134C07E
:100420008B85833039F089E0440F551F661F771F95
:100430008A95D1F79A01AB0168E1CE016FDF88237D
:1004400011F084E021C08EEF15DF87018EEFF81ADE
:10045000F80181918F010EDF0E151F05C9F78FEF8F
:1004600009DF8FEF07DF0DDF8A878F71853029F075
:1004700081E18D83CE010BDF08C068E572E0CE011B
:1004800035DF811106C085E18D83CE0100DF80E07C
:1004900010C020E030E0A9016DE0CE013FDF811106
:1004A00003C0EFDE882311F084E1EECFCE01EFDE52
:1004B00081E0DF91CF911F910F91FF90EF90089510
:1004C000CF93DF9380916B03882389F1C0916903F7
:1004D000D0916A03409100025091010260910202A2
:1004E0007091030220E733E0CE018BDF811102C05F
:1004F00080E01EC040916C0350916D0360916E03CB
:1005000070916F03411551056105710571F020E788
:1005100033E0CE0176DF882359F310926C031092FA
:100520006D0310926E0310926F0310926B0381E0C3
:10053000DF91CF910895BF92CF92DF92EF92FF9219
:100540000F931F93CF93DF936B017C01B42E8091A7
:10055000000290910102A0910202B09103028C1559
:100560009D05AE05BF0509F46DC0AADF882309F417
:1005700070C0C0916903D0916A038E81882369F0AD
:1005800088819981AA81BB81C816D906EA06FB0633
:1005900021F48F819885892B89F1C882D982EA82DA
:1005A000FB828B85A7019601833039F089E0220F09
:1005B000331F441F551F8A95D1F761E1CE01AEDE8E
:1005C000882319F083E08D8331C084DE8B0159DEEE
:1005D0008A878F3F41F47EDE601B710B6D32714064
:1005E000B0F38FE003C08E3F29F08DE08D83CE0104
:1005F0004EDE1CC018861F8281E08E8300E713E068
:1006000040DEF80181938F01F5E000371F07C1F745
:100610008F8198859E5F98878F832985222319F083
:100620008115924038F0CE013DDE04C0CE012FDEB0
:1006300080E00FC0C0920002D0920102E09202025C
:10064000F092030280916B03482F4B2940936B0378
:1006500081E0DF91CF911F910F91FF90EF90DF909C
:10066000CF90BF9008954F925F926F927F928F923A
:100670009F92AF92BF92CF92DF92EF92FF920F9331
:100680001F93CF93DF93EC016A017B0128013901AD
:10069000423051056105710510F480E072C0898512
:1006A0009A85AB85BC850196A11DB11D8417950760
:1006B000A607B70790F38B889C88AD88BE888F8982
:1006C000803129F4BB27AF2D9E2D8D2D09C0DB0174
:1006D000CA0147E0B695A795979587954A95D1F7B2
:1006E000880E991EAA1EBB1E8091000290910102E5
:1006F000A0910202B091030288169906AA06BB06D1
:1007000079F48F89803199F4DD24EE24FF24C60129
:10071000880F991FFC01E059FC4F5182408218C09C
:1007200040E0C501B40107DF8111EBCFB6CFE894FB
:10073000C7F8DD24EE24FF24C601880F991F880F17
:10074000991FFC01E059FC4F408251826282738202
:1007500080916B03816080936B038A89823080F083
:100760008D819E81AF81B885880E991EAA1EBB1E01
:1007700080926C0390926D03A0926E03B0926F030F
:1007800081E0DF91CF911F910F91FF90EF90DF906B
:10079000CF90BF90AF909F908F907F906F905F9021
:1007A0004F9008958F929F92AF92BF92CF92DF9217
:1007B000EF92FF920F931F93CF93DF93FC018185FC
:1007C0009285A385B4850196A11DB11D8417950757
:1007D000A607B70710F480E05BC083899489A589D8
:1007E000B689C789C03129F4852E962EA72EBB2441
:1007F00009C04A015B01C7E0B694A7949794879417
:10080000CA95D1F7E9016A017B018F01BC01CD01D5
:10081000680D791D8A1D9B1D809000029090010239
:10082000A0900202B0900302681579058A059B0525
:1008300099F4F80187898031A1F4B701A601552701
:1008400066277727440F551FFA01E059FC4F808136
:100850009181A0E0B0E017C040E06DDE8111E9CFEA
:10086000BACFB701A6014F77552766277727440FE0
:10087000551F440F551FFA01E059FC4F80819181AB
:10088000A281B381BF7088839983AA83BB8381E0EF
:10089000DF91CF911F910F91FF90EF90DF90CF905C
:1008A000BF90AF909F908F9008953F924F925F922C
:1008B0006F927F928F929F92AF92BF92CF92DF9270
:1008C000EF92FF920F931F93CF93DF93CDB7DEB7D5
:1008D0002C970FB6F894DEBF0FBECDBF5C01DC01D4
:1008E0005B968D909C905C971696CD90DD90ED90E8
:1008F000FC901997C114D104E104F10439F0BFEF61
:10090000CB1ADB0AEB0AFB0A312C07C0F401C080CA
:10091000D180E280F38033243394F4018185928581
:10092000A385B4859C01AD012F5F3F4F4F4F5F4FB3
:1009300029873A874B875C87260137011D821E82F3
:100940001F821886F40181859285A385B4852D8147
:100950003E814F815885281739074A075B0708F001
:1009600060C089859A85AB85BC858C159D05AE05D3
:10097000BF0550F482E0C82ED12CE12CF12C92E07E
:10098000492E512C612C712C9E012F5F3F4FB701D6
:10099000A601C40107DF882309F443C089819A8135
:1009A000AB81BC81892B8A2B8B2B41F0260137012F
:1009B0009FEF491A590A690A790A05C0C414D50477
:1009C000E604F70491F02D813E814F8158852F5F19
:1009D0003F4F4F4F5F4F2D833E834F8358873FEFED
:1009E000C31AD30AE30AF30AADCF0FEF1FEF2FEFBD
:1009F0003FE0B301A201C40136DE882391F0D501A6
:100A000016964D915D916D917C9119974115510507
:100A10006105710541F093018201C40124DE811159
:100A200002C080E02AC0D50116964D925D926D926B
:100A30007C921997332051F0D301C2010196A11D78
:100A4000B11DF40180839183A283B383F50187896B
:100A5000908DA18DB28D892B8A2B8B2B69F4D501BA
:100A600057964D925D926D927C925A9714968C9106
:100A70001497806814968C9381E02C960FB6F894A6
:100A8000DEBF0FBECDBFDF91CF911F910F91FF90C1
:100A9000EF90DF90CF90BF90AF909F908F907F901E
:100AA0006F905F904F903F9008954F925F926F923A
:100AB0007F928F929F92AF92BF92EF92FF920F938D
:100AC0001F93CF93DF9300D01F921F92CDB7DEB755
:100AD0008C016D83DC0115968C911597813009F09E
:100AE00056C014968C9181FF52C059C0038CF48D6E
:100AF000E02D258530E0275F3F4F2A013B01B1E023
:100B00004B1A510861087108022E04C0769467944C
:100B1000579447940A94D2F7D501C4010197A109CB
:100B2000B10904C0B695A795979587952A95D2F7F0
:100B300084159505A605B70508F06FC0F80147892B
:100B4000508D618D728D46835783608771872C012C
:100B50003D017801E6E0EE0EF11CD801411451048C
:100B60006104710409F463C016964D915D916D9115
:100B70007C91199797015B968D919C915C9712DE01
:100B8000B1E04B1A5108610871088111E6CF81E08C
:100B900090E0F8019383828380E090E049C182FF76
:100BA0000EC0F801428553856485758583889488D5
:100BB000A588B688481559056A057B05F1F4D80162
:100BC0001A964D915D916D917C911D975B968D91DB
:100BD0009C915C97FC0174807A944A015B0129E046
:100BE000B694A794979487942A95D1F778207A01A0
:100BF000F1E0FF22772011F162C081149104A10479
:100C0000B10409F073CF1682178210861186F8019D
:100C10001286138614861586D2CF452B462B472B7A
:100C200009F48CCF84199509A609B70990CF1A96B3
:100C30008D929D92AD92BC921D97C1CFE114F104AB
:100C400009F03DC0F80146815781608571854115E5
:100C500051056105710549F48789908DA18DB28D8B
:100C60000097A105B10531F520C09E012F5F3F4FD0
:100C700099DD882309F490CF89819A81AB81BC8169
:100C8000F801238D348DF9012789203129F048EFAF
:100C90005FEF6FEF7FE004C048EF5FEF60E070E070
:100CA00084179507A607B70728F0C801FEDD811154
:100CB00006C06DCFF80186839783A087B187D801DE
:100CC0005B96ED91FC915C9716968D909D90AD9002
:100CD000BC901997B2E08B1A9108A108B10805845D
:100CE00004C0880C991CAA1CBB1C0A94D2F78685E8
:100CF0009785A089B189880E991EAA1EBB1E870CF4
:100D0000911CA11CB11CE114F10401F5F80142850C
:100D100053856485758583899489A589B689481723
:100D200059076A077B0790F0CBDB882309F42FCFA4
:100D30008092000290920102A0920202B0920302FD
:100D400080916B03816080936B0307C041E0C50114
:100D5000B401F1DB882309F41ACFF701E059FC4F05
:100D60008D818083F80182859385A485B585019660
:100D7000A11DB11D82879387A487B58743895489B4
:100D800065897689481759076A077B0738F4838B8A
:100D9000948BA58BB68B848180688483D80114964C
:100DA0008C9183FD03C081E090E042C0F801958101
:100DB000992309F4ECCE87FF37C066857785808953
:100DC000918941E0B8DB882309F4E1CED80152963D
:100DD000EC91B0E2EB9F90011124D901A059BC4FD6
:100DE000109709F4D4CEF8018581823050F44389FC
:100DF0005489658976895C964D935D936D937C9358
:100E00005F97F8018789908DA18DB28DF901E05926
:100E1000FC4F938F828FB58BA48BD80114968C9145
:100E200014978F7714968C934BDB8111BCCFAFCE88
:100E30000F900F900F900F900F90DF91CF911F9117
:100E40000F91FF90EF90BF90AF909F908F907F9009
:100E50006F905F904F9008951F920F920FB60F9270
:100E600011242F933F938F939F93AF93BF938091C0
:100E7000730590917405A0917505B0917605309138
:100E8000720523E0230F2D3720F40196A11DB11D1B
:100E900005C026E8230F0296A11DB11D20937205FF
:100EA0008093730590937405A0937505B0937605B0
:100EB0008091770590917805A0917905B0917A0598
:100EC0000196A11DB11D8093770590937805A0939D
:100ED0007905B0937A05BF91AF919F918F913F9122
:100EE0002F910F900FBE0F901F9018951F920F9289
:100EF0000FB60F9211240F900FBE0F901F901895F0
:100F0000CF93DF93EC0189EE95E008D2892B21F095
:100F100089EE95E0E1D1F7CFBE0189EE95E0ABD344
:100F20006FEF89EE95E039D26FEF89EE95E035D21B
:100F30006FEF89EE95E0DF91CF912FC280917B001A
:100F4000877F80937B0080E480937C0080917A008F
:100F5000806480937A0080917A0086FDFCCFA09116
:100F6000780080917900B0E0B82B22EC31E00E944B
:100F7000EB112FEF33E040E050E00E949611DA01D0
:100F8000C90130936703209366034AE065E875E082
:100F90000E94631180916603909167038956914086
:100FA0008A359105B8F468EC70E080E090E084D474
:100FB00050D565E875E0072E000C880B990B7ED59F
:100FC00060E078EF8FEF9FEFC4D560E078EF8FEFB0
:100FD0009FEF16C068EC70E080E090E06DD439D5EA
:100FE00065E875E0072E000C880B990B67D560E06B
:100FF00074E080E090E0ADD560E074E080E090E0E7
:101000000BC6CF93DF93EC0182E392E08DD464E4CE
:1010100072E086E896E02FD3BE01DD0F880B990BB6
:101020009FD68CDF69E170E080E090E045D460E01D
:101030008AE0C6D369E170E080E090E03DD460E0F2
:101040008BE0DF91CF91BCC3CF93DF93EC0189E4B8
:1010500092E06AD464E472E086E896E00CD3BE01C4
:10106000DD0F880B990B7CD669DF69E170E080E0C9
:1010700090E022D460E08AE0A3D369E170E080E0F0
:1010800090E01AD461E08BE0DF91CF9199C3CF93C8
:10109000DF93EC018CE592E047D464E472E086E8EB
:1010A00096E0E9D2BE01DD0F880B990B59D646DFD9
:1010B00069E170E080E090E0FFD360E08AE080D3F7
:1010C00069E170E080E090E0F7D360E08BE0DF91D1
:1010D000CF9176C3CF93DF93EC018FE692E024D4D7
:1010E00064E472E086E896E0C6D2BE01DD0F880BAC
:1010F000990B36D623DF69E170E080E090E0DCD325
:1011000061E08AE05DD369E170E080E090E0D4D3F3
:1011100060E08BE0DF91CF9153C3CF93DF93EC017D
:1011200083E892E001D464E472E086E896E0A3D21A
:10113000BE01DD0F880B990B13D600DF69E170E06B
:1011400080E090E0B9D360E088E03AD369E170E0F4
:1011500080E090E0B1D360E089E0DF91CF9130C3CF
:10116000CF93DF93EC0187E992E0DED364E472E091
:1011700086E896E080D2BE01DD0F880B990BF0D592
:10118000DDDE69E170E080E090E096D360E088E029
:1011900017D369E170E080E090E08ED361E089E0F0
:1011A000DF91CF910DC3CF93DF93EC018CEA92E0F6
:1011B000BBD364E472E086E896E05DD2BE01DD0F49
:1011C000880B990BCDD569E170E080E090E074D395
:1011D00060E088E0F5D269E170E080E090E06CD3F7
:1011E00060E089E0EDD2DF91CF91A8CECF93DF937D
:1011F000EC018EEB92E098D364E472E086E896E02E
:101200003AD2BE01DD0F880B990BAAD597DE69E1B2
:1012100070E080E090E050D361E088E0D1D269E1F5
:1012200070E080E090E048D360E089E0DF91CF910A
:10123000C7C2CF92DF92EF92FF920F931F93CF938B
:10124000DF936C017A018B01C0E0D0E0CE15DF05A1
:1012500089F0D8016D918D01D601ED91FC9101903D
:10126000F081E02DC6011995892B11F47E0102C091
:101270002196ECCFC701DF91CF911F910F91FF9085
:10128000EF90DF90CF900895FC01A089B1898C91F7
:10129000A689B78982FD0FC09C91818D8F5F8F7366
:1012A000228D821749F0218DDF01A20FB11D5D96BD
:1012B0009C93818F08958C910895FC01538D448DEA
:1012C000252F30E0842F90E0821B930B541710F0F1
:1012D000CF96089501970895FC01918D828D9817FE
:1012E00061F0828DDF01A80FB11D5D968C91928D0A
:1012F0009F5F9F73928F90E008958FEF9FEF089507
:10130000FC01918D828D981731F0828DE80FF11DCF
:10131000858D90E008958FEF9FEF0895FC01918DEA
:10132000228D892F90E0805C9F4F821B91098F73E3
:101330009927089589EE95E0F1DF21E0892B09F4E2
:1013400020E0822F089586E896E0E8DF21E0892BEF
:1013500009F420E0822F0895FC01848DDF01A80F9D
:10136000B11DA35ABF4F2C91848D90E001968F73CD
:101370009927848FA689B7892C93A089B1898C91EC
:1013800080648C93938D848D981306C00288F389B2
:10139000E02D80818F7D80830895EF92FF920F93DF
:1013A0001F93CF93DF93EC0181E0888F9B8D8C8D11
:1013B000981305C0E889F989808185FD23C0F62E40
:1013C0000B8D10E00F5F1F4F0F731127E02E8C8DD8
:1013D000E8120BC00FB607FCFACFE889F9898081C3
:1013E00085FFF5CFCE01B8DFF2CF8B8DFE01E80F80
:1013F000F11DE35AFF4FF0820B8FEA89FB89808150
:10140000806207C0EE89FF896083E889F98980815D
:101410008064808381E090E0DF91CF911F910F91F4
:10142000FF90EF900895CF93DF93EC01888D882390
:10143000C1F0EA89FB89808185FD05C0A889B98949
:101440008C9186FD0EC00FB607FCF5CF808185FF1D
:10145000F2CFA889B9898C9185FFEDCFCE017CDFD1
:10146000E8CFDF91CF91089580E090E0892B19F0CB
:101470006ADF811120C080E090E0892B41F080E09C
:1014800090E0892B21F00E940000811117C080E0BC
:1014900090E0892B19F04EDF811113C080E090E0BD
:1014A000892BA1F080E090E0892B81F00E94000060
:1014B00081110AC008950E940000DDCF0E94000043
:1014C000E6CF0E940000EACF0C94000008953FB7D9
:1014D000F8948091770590917805A0917905B09165
:1014E0007A0526B5A89B05C02F3F19F00196A11DCE
:1014F000B11D3FBFBA2FA92F982F8827820F911DAA
:10150000A11DB11DBC01CD0142E0660F771F881FF0
:10151000991F4A95D1F708950E9402140F931F93C3
:10152000CF93DF93EC0188819981009729F02A817C
:101530003B812617370788F48B016F5F7F4F0E942E
:101540001E13009761F0998388831B830A832C8183
:101550003D81232B11F4FC01108281E001C080E069
:10156000DF91CF911F910F910895EF92FF920F930A
:101570001F93CF93DF936115710511F480E022C0B2
:10158000FB0101900020E9F73197E61BF70BDC0126
:1015900014960D911C911597309799F07B01EC01F1
:1015A0000E0F1F1FB801BADF882341F3288139814C
:1015B0008C819D81B701820F931F0E940F141D83A0
:1015C0000C8381E0DF91CF911F910F91FF90EF90FD
:1015D0000895EF92FF920F931F93CF93DF93EC0147
:1015E0007B018A01BA019ADF2881398181110CC0FF
:1015F0002115310511F0C90189D7198218821D8280
:101600001C821B821A8206C01D830C83B701C9018C
:101610000E940F14CE01DF91CF911F910F91FF9087
:10162000EF900895FC0111821082138212821582BC
:1016300014826115710549F0FB0101900020E9F762
:101640003197AF01461B570BC4CF08956115710543
:1016500079F0FB0101900020E9F73197AF01461BBB
:10166000570BDC01ED91FC910280F381E02D199480
:1016700080E090E00895EACF1F920F920FB60F928C
:1016800011240BB60F922F933F934F935F936F9359
:101690007F938F939F93AF93BF93EF93FF9389EEC5
:1016A00095E05ADEFF91EF91BF91AF919F918F919D
:1016B0007F916F915F914F913F912F910F900BBE52
:1016C0000F900FBE0F901F9018951F920F920FB69C
:1016D0000F9211240BB60F922F933F934F935F936A
:1016E0006F937F938F939F93AF93BF93EF93FF93EA
:1016F00089EE95E0C9DDFF91EF91BF91AF919F9188
:101700008F917F916F915F914F913F912F910F90AA
:101710000BBE0F900FBE0F901F9018951F920F9247
:101720000FB60F9211240BB60F922F933F934F9346
:101730005F936F937F938F939F93AF93BF93EF9339
:10174000FF9386E896E008DEFF91EF91BF91AF919D
:101750009F918F917F916F915F914F913F912F91C9
:101760000F900BBE0F900FBE0F901F9018951F92F9
:101770000F920FB60F9211240BB60F922F933F9337
:101780004F935F936F937F938F939F93AF93BF9389
:10179000EF93FF9386E896E077DDFF91EF91BF919D
:1017A000AF919F918F917F916F915F914F913F91F9
:1017B0002F910F900BBE0F900FBE0F901F9018959A
:1017C000362F90E0FC01E85FFE4F4491FC01E853A6
:1017D000FE4F2491FC01EE57FE4F9491992309F49A
:1017E0006AC0442309F454C050E0FA013197E23151
:1017F000F10508F04DC08827EE58FF4F8F4FE3C525
:10180000809180008F7707C0809180008F7D03C01A
:1018100080918000877F809380003AC084B58F7765
:1018200002C084B58F7D84BD33C08091B0008F77B6
:1018300003C08091B0008F7D8093B00029C080915B
:1018400090008F7707C0809190008F7D03C08091BA
:101850009000877F809390001BC08091A0008F77BD
:1018600007C08091A0008F7D03C08091A000877F7A
:101870008093A0000DC0809120018F7707C08091D8
:1018800020018F7D03C080912001877F80932001FC
:10189000E92FF0E0EE0FFF1FE25BFE4FA591B49140
:1018A0008FB7F894EC91311103C020952E2301C01D
:1018B0002E2B2C938FBF08958F929F92AF92BF9241
:1018C000CF92DF92EF92FF926B017C0100DE4B0121
:1018D0005C01C114D104E104F104E9F0F8DDDC019C
:1018E000CB0188199909AA09BB09883E9340A10533
:1018F000B10578F321E0C21AD108E108F10888EEB9
:10190000880E83E0981EA11CB11CC114D104E1040F
:10191000F10421F7DECFFF90EF90DF90CF90BF90E2
:10192000AF909F908F900895CF93DF93BC0186E88E
:1019300096E08CDEEC016FE073E086E896E086DEF0
:101940008C0F9D1FDF91CF9108958F929F92AF9240
:10195000BF92EF92FF920F931F93CF93DF9300D02C
:101960001F92CDB7DEB719821A821B821C8284E6D1
:1019700090E0A0E0B0E08093ED059093EE05A09399
:10198000EF05B093F0058E010F5F1F4F7E0185E0DC
:10199000E80EF11C0E946A016093F1057093F20554
:1019A0008093F3059093F405E091E905F091EA0541
:1019B0000284F385E02D89EE95E0199597FD0AC024
:1019C000F80181938F01EE15FF0521F789818130A0
:1019D00069F51EC00E946A018090F1059090F205A1
:1019E000A090F305B090F405DC01CB0188199909AA
:1019F000AA09BB098090ED059090EE05A090EF0537
:101A0000B090F00588159905AA05BB0568F2DECFF0
:101A10008A818F3F59F48B818F3F41F48C818F3FB6
:101A200029F482E193E080DF81E004C08CE293E05E
:101A30007BDF80E00F900F900F900F90DF91CF91A0
:101A40001F910F91FF90EF90BF90AF909F908F905C
:101A500008951F93CF93DF9300D000D0CDB7DEB7AA
:101A600061E173E0CE010196DDDD60912B0770919D
:101A70002C07CE01019679DD67E473E0CE01019673
:101A800074DD65E875E0CE0101966FDD6CE473E00E
:101A9000CE0101966ADD89819A8132DA56DF182FEC
:101AA00089819A8133D5812F26960FB6F894DEBFAF
:101AB0000FBECDBFDF91CF911F910895CF92DF92DE
:101AC000EF92FF920F931F93CF93DF93CDB7DEB7C3
:101AD00060970FB6F894DEBF0FBECDBF6B017C01DF
:101AE0008E010F5F1F4F8AE0F80111928A95E9F786
:101AF00061E173E0CE010B9695DD4AE0B801C601C5
:101B0000ECD36091270770912807CE010B962DDD4D
:101B10006EE473E0CE010B9628DDB801CE010B9682
:101B200024DD8B859C85ECD910DF182F8B859C8557
:101B3000EDD4812F60960FB6F894DEBF0FBECDBFF7
:101B4000DF91CF911F910F91FF90EF90DF90CF9099
:101B50000895CF92DF92EF92FF920F931F93CF934E
:101B6000DF93CDB7DEB760970FB6F894DEBF0FBE38
:101B7000CDBF6B017C018E010F5F1F4F8AE0F80122
:101B800011928A95E9F761E173E0CE010B964ADD87
:101B90004AE0B801C601A1D389E2E82E87E0F82E19
:101BA000F70162817381CE010B96DFDC64E573E09F
:101BB000CE010B96DADCB801CE010B96D6DC8B8514
:101BC0009C859ED940E050E061E173E0CE010B9628
:101BD00000DD6AE573E0CE010B96C7DCF701628198
:101BE0007381CE010B96C1DC8B859C8589D9ADDED6
:101BF000182F8B859C858AD4812F60960FB6F89418
:101C0000DEBF0FBECDBFDF91CF911F910F91FF902F
:101C1000EF90DF90CF900895CF92DF92EF92FF92F6
:101C20000F931F93CF93DF93CDB7DEB760970FB6B7
:101C3000F894DEBF0FBECDBF6B017C018E010F5F3C
:101C40001F4F8AE0F80111928A95E9F761E173E08C
:101C5000CE010B96E7DC4AE0B801C6013ED385E22F
:101C6000E82E87E0F82EF70162817381CE010B9692
:101C70007CDC6FE573E0CE010B9677DCB801CE011A
:101C80000B9673DC8B859C853BD940E050E061E18D
:101C900073E0CE010B969DDC6AE573E0CE010B96F6
:101CA00064DCF70162817381CE010B965EDC8B856B
:101CB0009C8526D94ADE182F8B859C8527D4812FB9
:101CC00060960FB6F894DEBF0FBECDBFDF91CF9107
:101CD0001F910F91FF90EF90DF90CF9008958F921A
:101CE0009F92AF92BF920F931F93CF93DF93CDB785
:101CF000DEB7A1970FB6F894DEBF0FBECDBF19A215
:101D0000423008F44AE08E010F5D1F4F842E912C63
:101D1000A12CB12CA501940125D3E62FB901CA014C
:101D200001501109EA3014F4E05D01C0E95CD8010A
:101D3000EC93232B242B252B69F7B80186E896E03A
:101D400085DCA1960FB6F894DEBF0FBECDBFDF9144
:101D5000CF911F910F91BF90AF909F908F9008955A
:101D6000CF93DF934AE0BBDFEC016FE073E086E8DE
:101D700096E06CDC8C0F9D1FDF91CF910895FC01E4
:101D8000A089B18982E08C93A485B5851C92A68533
:101D9000B7858FEC8C93108EA489B58986E08C93DF
:101DA000A289B3898C9180618C93A289B3898C912B
:101DB00088608C93A289B3898C9180688C93028807
:101DC000F389E02D80818F7D80830895789484B598
:101DD000826084BD84B5816084BD85B5826085BD27
:101DE00085B5816085BD80916E00816080936E00B5
:101DF00010928100809181008260809381008091A7
:101E00008100816080938100809180008160809357
:101E100080008091B10084608093B1008091B00017
:101E200081608093B00080919100826080939100E6
:101E300080919100816080939100809190008160F9
:101E4000809390008091A10082608093A100809196
:101E5000A10081608093A1008091A00081608093A7
:101E6000A000809121018260809321018091210155
:101E70008160809321018091200181608093200105
:101E800080917A00846080937A0080917A008260E9
:101E900080937A0080917A00816080937A008091AB
:101EA0007A00806880937A001092C100C8E0D0E088
:101EB0008C2FFE01E853FE4F9491FE01EE57FE4F2A
:101EC0002491222399F030E0220F331FF901E859C1
:101ED000FE4FA591B491F901E25BFE4F259134913B
:101EE0002FB7F894EC91E92BEC932FBF60E068DCFE
:101EF0002196CC30D105E1F686E896E040DF89EE08
:101F000095E03DDF81E193E00E94800781ED92E062
:101F10000E9480071ADD89ED92E00E94800715DD9E
:101F200081E497E027E438E030934A07209349079B
:101F300090934C0780934B072AE638E0309346078E
:101F400020934507909348078093470785E397E0E0
:101F500021E038E030933E0720933D0790934007FF
:101F600080933F0724E238E030933A072093390703
:101F700090933C0780933B0789E597E023ED38E099
:101F800030936207209361079093640780936307FF
:101F900026EF38E030935E0720935D07909360074B
:101FA00080935F078DE497E02DE838E03093560783
:101FB00020935507909358078093570720EB38E0FC
:101FC00030935207209351079093540780935307FF
:101FD0000E949E0780EE92E0A7DC89EE95E09ED9F4
:101FE000181619060CF041C06AE070E080E090E03D
:101FF00063DC89EE95E070D9C82F853671F789EEDC
:1020000095E08CD906974CF3C0937B05CCE7D5E0DF
:1020100089EE95E061D9899385E0C238D807C1F788
:102020001092820580917F058F3FB9F680918005DF
:102030008F3F99F6809181058F3F79F6C0907E059C
:10204000D12CE12CF12C80917D0590917C05E4E070
:10205000F2E0C191D191209709F4BFCF28812913D3
:10206000F8CF29812813F5CF02C0FED9B6CF64EF8F
:1020700072E086E896E0FFDA4AE0BE010D2E000C21
:10208000880B990B2CDE66EF72E086E896E0F3DAB7
:10209000688170E080E090E04AE021DE68EF72E065
:1020A00086E896E0E8DA698170E080E090E04AE056
:1020B00016DE68EF72E086E896E0DDDA6A817B8101
:1020C0006115710511F46BEE72E086E896E0D3DAE3
:1020D00082EF92E029DC81E0C816D104E104F1042A
:1020E00041F4EC81FD81309709F477CF8E819F8197
:1020F0000CC0CD28CE28CF2809F06FCFE885F98510
:10210000309709F46ACF8A859B85199566CFE9EEE9
:10211000F5E01382128248EE53E060E070E0448301
:1021200055836683778388E192E09183808325EDF0
:1021300030E03587248724ED30E03787268720ED8F
:1021400030E0318B208B21ED30E0338B228B22ED80
:1021500030E0358B248B26ED30E0378B268B118ECB
:10216000128E138E148EE6E8F6E0138212824483F8
:102170005583668377839183808385EC90E0958790
:10218000848784EC90E09787868780EC90E0918B41
:10219000808B81EC90E0938B828B82EC90E0958B2E
:1021A000848B86EC90E0978B868B118E128E138E2B
:1021B000148EE3E2F7E080E580831182E5E6F7E044
:1021C000158216821186138682E090E0A0E0B0E0CE
:1021D00084879587A687B78713A215A614A68AE2D7
:1021E00092E093A782A717A6E9E5F7E0108281E0C5
:1021F00081832AEF32E03383228315821482118691
:1022000010861386128617821682EDE4F7E010829C
:1022100093E091832DEF32E0338322831582148281
:10222000118610861386128617821682E1E4F7E083
:10223000108294E0918320E033E03383228315827F
:102240001482118610861386128617821682E5E3A1
:10225000F7E0108295E0918323E033E0338322831B
:1022600015821482118610861386128617821682B2
:10227000E9E2F7E0108299E0918326E033E03383CE
:102280002283158214821186108613861286178285
:102290001682EEEAF7E0108298E0918329E033E0BD
:1022A0003383228315821482118610861386128648
:1022B00017821682E5E2F7E0808381838CE093E069
:1022C000938382830895BB274A3031F4992322F403
:1022D000BDE2909581959F4F01C0BB27FB0155271B
:1022E000AA27880F991FAA1FA41710F0A41B839573
:1022F0005051B9F7A05DAA3308F0A95DA1930097EA
:1023000079F7B111B1931192CB0100C0DC01FC014E
:10231000672F71917723E1F7329704C07C916D9319
:1023200070836291AE17BF07C8F30895052E97FB1F
:1023300016F400940FD057FD05D014D007FC02D03E
:1023400046F408C050954095309521953F4F4F4F2A
:102350005F4F089590958095709561957F4F8F4F51
:102360009F4F0895A1E21A2EAA1BBB1BFD010DC0B1
:10237000AA1FBB1FEE1FFF1FA217B307E407F50735
:1023800020F0A21BB30BE40BF50B661F771F881F11
:10239000991F1A9469F760957095809590959B01A7
:1023A000AC01BD01CF010895A29FB001B39FC00150
:1023B000A39F700D811D1124911DB29F700D811D71
:1023C0001124911D0895EE0FFF1F881F8BBF0790EA
:1023D000F691E02D1994E8DFB7FF0895821B930B67
:1023E0000895CF93DF938230910510F482E090E05E
:1023F000E091BC07F091BD0720E030E0C0E0D0E004
:10240000309711F14081518148175907C0F04817A2
:10241000590761F482819381209719F09B838A8305
:102420002BC09093BD078093BC0726C021153105B2
:1024300019F04217530718F49A01BE01DF01EF01AA
:102440000280F381E02DDCCF2115310509F1281B35
:10245000390B2430310590F412968D919C9113978D
:102460006115710521F0FB019383828304C0909371
:10247000BD078093BC07FD01329644C0FD01E20F09
:10248000F31F81939193225031092D933C933AC0CD
:102490002091BA073091BB07232B41F42091100201
:1024A000309111023093BB072093BA0720910E029E
:1024B00030910F022115310541F42DB73EB74091FF
:1024C000120250911302241B350BE091BA07F091D0
:1024D000BB07E217F307A0F42E1B3F0B28173907A1
:1024E00078F0AC014E5F5F4F2417350748F04E0F70
:1024F0005F1F5093BB074093BA078193919302C02B
:10250000E0E0F0E0CF01DF91CF9108950F931F93AA
:10251000CF93DF93009709F48CC0FC0132971382AC
:1025200012820091BC071091BD070115110581F4BD
:1025300020813181820F931F2091BA073091BB0710
:102540002817390779F5F093BB07E093BA0771C0F4
:10255000D80140E050E0AE17BF0750F412962D911D
:102560003C911397AD012115310509F1D901F3CF44
:102570009D01DA013383228360817181860F971F69
:102580008217930769F4EC0128813981260F371FE0
:102590002E5F3F4F318320838A819B819383828387
:1025A000452B29F4F093BD07E093BC0742C0139676
:1025B000FC93EE931297ED01499159919E01240FDE
:1025C000351FE217F30771F480819181840F951F05
:1025D000029611969C938E938281938113969C937D
:1025E0008E931297E0E0F0E0D80112968D919C91C5
:1025F0001397009719F0F8018C01F6CF8D919C91FB
:1026000098012E5F3F4F820F931F2091BA073091A0
:10261000BB072817390769F4309729F41092BD07D2
:102620001092BC0702C0138212821093BB07009362
:10263000BA07DF91CF911F910F9108956F927F920A
:102640008F929F92AF92BF92CF92DF92EF92FF92C2
:102650000F931F93CF93DF93EC01009781F4CB018D
:10266000DF91CF911F910F91FF90EF90DF90CF906E
:10267000BF90AF909F908F907F906F90B2CEFC01F3
:10268000E60FF71F9C0122503109E217F30708F407
:10269000A8C0D9010D911C91119706171707A8F032
:1026A0000530110508F49BC0C801049786179707E9
:1026B00008F495C002501109061B170B01931193E2
:1026C0006D937C93CF0122DF8AC05B01A01AB10A0F
:1026D0004C01800E911EA091BC07B091BD0740E057
:1026E00050E0E12CF12C109709F44AC0A815B90567
:1026F000D1F56D907C901197630182E0C80ED11CDA
:10270000CA14DB0480F1A3014A195B096A0182E063
:10271000C80ED11C1296BC9012971396AC91B5E0DE
:10272000CB16D10440F0B282A38351834083D901F8
:102730006D937C930AC00E5F1F4FC301800F911FE2
:10274000F90191838083EB2DFA2FE114F10431F02C
:10275000D7011396FC93EE93129741C0F093BD07F7
:10276000E093BC073CC08D919C9111974817590785
:1027700008F4AC017D0112960D90BC91A02DB3CF51
:102780008091BA079091BB0788159905E1F4461727
:102790005707C8F480910E0290910F02009741F400
:1027A0008DB79EB74091120250911302841B950B76
:1027B000E817F907B0F4F093BB07E093BA07F90103
:1027C000718360830CC0CB010CDE7C01009749F063
:1027D000A801BE011BD0CE0199DEC70104C0CE0105
:1027E00002C080E090E0DF91CF911F910F91FF90A8
:1027F000EF90DF90CF90BF90AF909F908F907F90A1
:102800006F90089581E090E0F89410C0FB01DC0126
:1028100002C001900D9241505040D8F70895FB013D
:10282000DC0101900D920020E1F70895F894FFCFAC
:10283000FFFFFFFF4107350759074D070000000064
:10284000BE07800000000000CD0919095D09130AC8
:102850008E096C0980090000000055051909440122
:10286000430142544E5F4357506F7043616C6C623A
:1028700061636B007074723D0042544E5F43575069
:1028800075736843616C6C6261636B0042544E5FA8
:10289000434357506F7043616C6C6261636B0042DD
:1028A000544E5F4343575075736843616C6C62616B
:1028B000636B0042544E5F444F574E506F704361FC
:1028C0006C6C6261636B0042544E5F444F574E50D4
:1028D00075736843616C6C6261636B0042544E5F58
:1028E0005550506F7043616C6C6261636B00425471
:1028F0004E5F55505075736843616C6C6261636BD9
:1029000000626B636D643D3100706167652030006B
:10291000736574757020646F6E6500286E756C6CDD
:1029200029005D005B003A002C006230006231003B
:102930006232006233007433007432007A30000D6A
:102940000A0072656376526574436F6D6D616E64E3
:1029500046696E6973686564206F6B0072656376A3
:10296000526574436F6D6D616E6446696E6973681C
:10297000656420657272002E7478743D22002E7694
:10298000616C3D002E70636F3D0072656620002E05
:0629900062636F3D0000D0
:00000001FF
